{
  "contractName": "MyEnergyPrice",
  "abi": [
    {
      "inputs": [],
      "stateMutability": "nonpayable",
      "type": "constructor"
    },
    {
      "anonymous": false,
      "inputs": [
        {
          "indexed": true,
          "internalType": "bytes32",
          "name": "id",
          "type": "bytes32"
        }
      ],
      "name": "ChainlinkCancelled",
      "type": "event"
    },
    {
      "anonymous": false,
      "inputs": [
        {
          "indexed": true,
          "internalType": "bytes32",
          "name": "id",
          "type": "bytes32"
        }
      ],
      "name": "ChainlinkFulfilled",
      "type": "event"
    },
    {
      "anonymous": false,
      "inputs": [
        {
          "indexed": true,
          "internalType": "bytes32",
          "name": "id",
          "type": "bytes32"
        }
      ],
      "name": "ChainlinkRequested",
      "type": "event"
    },
    {
      "inputs": [],
      "name": "volume",
      "outputs": [
        {
          "internalType": "uint256",
          "name": "",
          "type": "uint256"
        }
      ],
      "stateMutability": "view",
      "type": "function"
    },
    {
      "inputs": [],
      "name": "requestVolumeData",
      "outputs": [
        {
          "internalType": "bytes32",
          "name": "requestId",
          "type": "bytes32"
        }
      ],
      "stateMutability": "nonpayable",
      "type": "function"
    },
    {
      "inputs": [
        {
          "internalType": "bytes32",
          "name": "_requestId",
          "type": "bytes32"
        },
        {
          "internalType": "uint256",
          "name": "_volume",
          "type": "uint256"
        }
      ],
      "name": "fulfill",
      "outputs": [],
      "stateMutability": "nonpayable",
      "type": "function"
    }
  ],
  "bytecode": "0x608060405260016004553480156200001657600080fd5b5062000027620000b860201b60201c565b73c57b33452b4f7bb189bb5afae9cc4aba1f7a4fd8600760006101000a81548173ffffffffffffffffffffffffffffffffffffffff021916908373ffffffffffffffffffffffffffffffffffffffff1602179055507f643532373064316333313139343164306230386265616432316665613737343760088190555067016345785d8a000060098190555062000235565b6200015e73c89bd4e1632d3a43cb03aaad5262cbe4038bc57173ffffffffffffffffffffffffffffffffffffffff166338cc48316040518163ffffffff1660e01b815260040160206040518083038186803b1580156200011757600080fd5b505afa1580156200012c573d6000803e3d6000fd5b505050506040513d601f19601f82011682018060405250810190620001529190620001bb565b6200016060201b60201c565b565b80600260006101000a81548173ffffffffffffffffffffffffffffffffffffffff021916908373ffffffffffffffffffffffffffffffffffffffff16021790555050565b600081519050620001b5816200021b565b92915050565b600060208284031215620001ce57600080fd5b6000620001de84828501620001a4565b91505092915050565b6000620001f482620001fb565b9050919050565b600073ffffffffffffffffffffffffffffffffffffffff82169050919050565b6200022681620001e7565b81146200023257600080fd5b50565b6116a480620002456000396000f3fe608060405234801561001057600080fd5b50600436106100415760003560e01c80634357855e146100465780636021abac14610062578063c618a1e414610080575b600080fd5b610060600480360381019061005b9190610ddb565b61009e565b005b61006a6101af565b6040516100779190610fef565b60405180910390f35b610088610336565b604051610095919061104a565b60405180910390f35b816005600082815260200190815260200160002060009054906101000a900473ffffffffffffffffffffffffffffffffffffffff1673ffffffffffffffffffffffffffffffffffffffff163373ffffffffffffffffffffffffffffffffffffffff1614610140576040517f08c379a00000000000000000000000000000000000000000000000000000000081526004016101379061102a565b60405180910390fd5b6005600082815260200190815260200160002060006101000a81549073ffffffffffffffffffffffffffffffffffffffff0219169055807f7cc135e0cebb02c3480ae5d74d377283180a2601f8f644edf7987b009316c63a60405160405180910390a281600681905550505050565b6000806101c660085430634357855e60e01b61033c565b905061022a6040518060400160405280600381526020017f6765740000000000000000000000000000000000000000000000000000000000815250604051806080016040528060498152602001611626604991398361036d9092919063ffffffff16565b6102a96040518060400160405280600481526020017f70617468000000000000000000000000000000000000000000000000000000008152506040518060400160405280601881526020017f5241572e4554482e5553442e564f4c554d453234484f555200000000000000008152508361036d9092919063ffffffff16565b6000670de0b6b3a764000090506103006040518060400160405280600581526020017f74696d657300000000000000000000000000000000000000000000000000000081525082846103a09092919063ffffffff16565b61032f600760009054906101000a900473ffffffffffffffffffffffffffffffffffffffff16836009546103d3565b9250505090565b60065481565b610344610cec565b61034c610cec565b610363858585846103f3909392919063ffffffff16565b9150509392505050565b6103848284608001516104a390919063ffffffff16565b61039b8184608001516104a390919063ffffffff16565b505050565b6103b78284608001516104a390919063ffffffff16565b6103ce8184608001516104c890919063ffffffff16565b505050565b60006103ea8484846001634042994660e01b610575565b90509392505050565b6103fb610cec565b61040b85608001516101006107dd565b508385600001818152505082856020019073ffffffffffffffffffffffffffffffffffffffff16908173ffffffffffffffffffffffffffffffffffffffff16815250508185604001907bffffffffffffffffffffffffffffffffffffffffffffffffffffffff191690817bffffffffffffffffffffffffffffffffffffffffffffffffffffffff191681525050849050949350505050565b6104b08260038351610847565b6104c3818361098c90919063ffffffff16565b505050565b7fffffffffffffffffffffffffffffffffffffffffffffffff00000000000000008112156104ff576104fa82826109ae565b610571565b67ffffffffffffffff81131561051e576105198282610a25565b610570565b600081126105375761053282600083610847565b61056f565b61056e826001837fffffffffffffffffffffffffffffffffffffffffffffffffffffffffffffffff61056991906112b3565b610847565b5b5b5b5050565b60003060045460405160200161058c929190610f00565b604051602081830303815290604052805190602001209050600454856060018181525050856005600083815260200190815260200160002060006101000a81548173ffffffffffffffffffffffffffffffffffffffff021916908373ffffffffffffffffffffffffffffffffffffffff160217905550807fb5e6e01e79f91267dc17b4e6314d5d4d03593d2ceee0fbb452b750bd70ea5af960405160405180910390a2600082600080886000015189602001518a604001518b606001518a8d608001516000015160405160240161066a989796959493929190610f2c565b604051602081830303815290604052907bffffffffffffffffffffffffffffffffffffffffffffffffffffffff19166020820180517bffffffffffffffffffffffffffffffffffffffffffffffffffffffff83818316178352505050509050600260009054906101000a900473ffffffffffffffffffffffffffffffffffffffff1673ffffffffffffffffffffffffffffffffffffffff16634000aea08887846040518463ffffffff1660e01b815260040161072893929190610fb1565b602060405180830381600087803b15801561074257600080fd5b505af1158015610756573d6000803e3d6000fd5b505050506040513d601f19601f8201168201806040525081019061077a9190610db2565b6107b9576040517f08c379a00000000000000000000000000000000000000000000000000000000081526004016107b09061100a565b60405180910390fd5b6001600460008282546107cc9190611092565b925050819055505095945050505050565b6107e5610d59565b60006020836107f49190611488565b14610820576020826108069190611488565b60206108129190611347565b8261081d9190611092565b91505b81836020018181525050604051808452600081528281016020016040525082905092915050565b601781116108745761086e8160058460ff16901b60ff161784610a7190919063ffffffff16565b50610987565b60ff81116108b657610899601860058460ff16901b1784610a7190919063ffffffff16565b506108b081600185610a919092919063ffffffff16565b50610986565b61ffff81116108f9576108dc601960058460ff16901b1784610a7190919063ffffffff16565b506108f381600285610a919092919063ffffffff16565b50610985565b63ffffffff811161093e57610921601a60058460ff16901b1784610a7190919063ffffffff16565b5061093881600485610a919092919063ffffffff16565b50610984565b67ffffffffffffffff81116109835761096a601b60058460ff16901b1784610a7190919063ffffffff16565b5061098181600885610a919092919063ffffffff16565b505b5b5b5b5b505050565b610994610d59565b6109a683846000015151848551610ab3565b905092915050565b6109cc60036005600660ff16901b1783610a7190919063ffffffff16565b50610a2182827fffffffffffffffffffffffffffffffffffffffffffffffffffffffffffffffff6109fd91906112b3565b604051602001610a0d919061104a565b604051602081830303815290604052610ba2565b5050565b610a4360026005600660ff16901b1783610a7190919063ffffffff16565b50610a6d8282604051602001610a59919061104a565b604051602081830303815290604052610ba2565b5050565b610a79610d59565b610a898384600001515184610bc7565b905092915050565b610a99610d59565b610aaa848560000151518585610c1e565b90509392505050565b610abb610d59565b8251821115610ac957600080fd5b84602001518285610ada9190611092565b1115610b0f57610b0e856002610aff88602001518887610afa9190611092565b610cac565b610b099190611259565b610cc8565b5b600080865180518760208301019350808887011115610b2e5787860182525b60208701925050505b60208410610b755780518252602082610b509190611092565b9150602081610b5f9190611092565b9050602084610b6e9190611347565b9350610b37565b60006001856020036101000a03905080198251168184511681811785525050508692505050949350505050565b610baf8260028351610847565b610bc2818361098c90919063ffffffff16565b505050565b610bcf610d59565b83602001518310610bf557610bf48460028660200151610bef9190611259565b610cc8565b5b8351805160208583010184815381861415610c11576001820183525b5050508390509392505050565b610c26610d59565b84602001518483610c379190611092565b1115610c5f57610c5e8560028685610c4f9190611092565b610c599190611259565b610cc8565b5b6000600183610100610c71919061113b565b610c7b9190611347565b90508551838682010185831982511617815281518588011115610c9e5784870182525b505085915050949350505050565b600081831115610cbe57829050610cc2565b8190505b92915050565b600082600001519050610cdb83836107dd565b50610ce6838261098c565b50505050565b6040518060a0016040528060008019168152602001600073ffffffffffffffffffffffffffffffffffffffff16815260200160007bffffffffffffffffffffffffffffffffffffffffffffffffffffffff1916815260200160008152602001610d53610d59565b81525090565b604051806040016040528060608152602001600081525090565b600081519050610d82816115e0565b92915050565b600081359050610d97816115f7565b92915050565b600081359050610dac8161160e565b92915050565b600060208284031215610dc457600080fd5b6000610dd284828501610d73565b91505092915050565b60008060408385031215610dee57600080fd5b6000610dfc85828601610d88565b9250506020610e0d85828601610d9d565b9150509250929050565b610e208161137b565b82525050565b610e2f81611399565b82525050565b610e3e816113a3565b82525050565b6000610e4f82611065565b610e598185611070565b9350610e69818560208601611427565b610e7281611517565b840191505092915050565b610e8e610e8982611403565b61145a565b82525050565b6000610ea1602383611081565b9150610eac82611542565b604082019050919050565b6000610ec4602883611081565b9150610ecf82611591565b604082019050919050565b610ee3816113f9565b82525050565b610efa610ef5826113f9565b61147e565b82525050565b6000610f0c8285610e7d565b601482019150610f1c8284610ee9565b6020820191508190509392505050565b600061010082019050610f42600083018b610e17565b610f4f602083018a610eda565b610f5c6040830189610e26565b610f696060830188610e17565b610f766080830187610e35565b610f8360a0830186610eda565b610f9060c0830185610eda565b81810360e0830152610fa28184610e44565b90509998505050505050505050565b6000606082019050610fc66000830186610e17565b610fd36020830185610eda565b8181036040830152610fe58184610e44565b9050949350505050565b60006020820190506110046000830184610e26565b92915050565b6000602082019050818103600083015261102381610e94565b9050919050565b6000602082019050818103600083015261104381610eb7565b9050919050565b600060208201905061105f6000830184610eda565b92915050565b600081519050919050565b600082825260208201905092915050565b600082825260208201905092915050565b600061109d826113f9565b91506110a8836113f9565b9250827fffffffffffffffffffffffffffffffffffffffffffffffffffffffffffffffff038211156110dd576110dc6114b9565b5b828201905092915050565b6000808291508390505b60018511156111325780860481111561110e5761110d6114b9565b5b600185161561111d5780820291505b808102905061112b85611535565b94506110f2565b94509492505050565b6000611146826113f9565b9150611151836113f9565b925061117e7fffffffffffffffffffffffffffffffffffffffffffffffffffffffffffffffff8484611186565b905092915050565b6000826111965760019050611252565b816111a45760009050611252565b81600181146111ba57600281146111c4576111f3565b6001915050611252565b60ff8411156111d6576111d56114b9565b5b8360020a9150848211156111ed576111ec6114b9565b5b50611252565b5060208310610133831016604e8410600b84101617156112285782820a905083811115611223576112226114b9565b5b611252565b61123584848460016110e8565b9250905081840481111561124c5761124b6114b9565b5b81810290505b9392505050565b6000611264826113f9565b915061126f836113f9565b9250817fffffffffffffffffffffffffffffffffffffffffffffffffffffffffffffffff04831182151516156112a8576112a76114b9565b5b828202905092915050565b60006112be826113cf565b91506112c9836113cf565b9250827f800000000000000000000000000000000000000000000000000000000000000001821260008412151615611304576113036114b9565b5b827f7fffffffffffffffffffffffffffffffffffffffffffffffffffffffffffffff01821360008412161561133c5761133b6114b9565b5b828203905092915050565b6000611352826113f9565b915061135d836113f9565b9250828210156113705761136f6114b9565b5b828203905092915050565b6000611386826113d9565b9050919050565b60008115159050919050565b6000819050919050565b60007fffffffff0000000000000000000000000000000000000000000000000000000082169050919050565b6000819050919050565b600073ffffffffffffffffffffffffffffffffffffffff82169050919050565b6000819050919050565b600061140e82611415565b9050919050565b6000611420826113d9565b9050919050565b60005b8381101561144557808201518184015260208101905061142a565b83811115611454576000848401525b50505050565b60006114658261146c565b9050919050565b600061147782611528565b9050919050565b6000819050919050565b6000611493826113f9565b915061149e836113f9565b9250826114ae576114ad6114e8565b5b828206905092915050565b7f4e487b7100000000000000000000000000000000000000000000000000000000600052601160045260246000fd5b7f4e487b7100000000000000000000000000000000000000000000000000000000600052601260045260246000fd5b6000601f19601f8301169050919050565b60008160601b9050919050565b60008160011c9050919050565b7f756e61626c6520746f207472616e73666572416e6443616c6c20746f206f726160008201527f636c650000000000000000000000000000000000000000000000000000000000602082015250565b7f536f75726365206d75737420626520746865206f7261636c65206f662074686560008201527f2072657175657374000000000000000000000000000000000000000000000000602082015250565b6115e98161138d565b81146115f457600080fd5b50565b61160081611399565b811461160b57600080fd5b50565b611617816113f9565b811461162257600080fd5b5056fe68747470733a2f2f6d696e2d6170692e63727970746f636f6d706172652e636f6d2f646174612f70726963656d756c746966756c6c3f6673796d733d455448267473796d733d555344a2646970667358221220584443ba6c17fbe2a21bc5f35696dd4a54abead38edfa541f2528922f615f46364736f6c63430008010033",
  "immutableReferences": {},
  "source": "// SPDX-License-Identifier: MIT\r\npragma solidity ^0.8.0;\r\n\r\nimport \"@chainlink/contracts/src/v0.8/ChainlinkClient.sol\";\r\n\r\n/**\r\n * THIS IS AN EXAMPLE CONTRACT WHICH USES HARDCODED VALUES FOR CLARITY.\r\n * PLEASE DO NOT USE THIS CODE IN PRODUCTION.\r\n */\r\ncontract MyEnergyPrice is ChainlinkClient {\r\n    using Chainlink for Chainlink.Request;\r\n  \r\n    uint256 public volume;\r\n    \r\n    address private oracle;\r\n    bytes32 private jobId;\r\n    uint256 private fee;\r\n    \r\n    /**\r\n     * Network: Kovan\r\n     * Oracle: 0xc57B33452b4F7BB189bB5AfaE9cc4aBa1f7a4FD8 (Chainlink Devrel   \r\n     * Node)\r\n     * Job ID: d5270d1c311941d0b08bead21fea7747\r\n     * Fee: 0.1 LINK\r\n     */\r\n    constructor() {\r\n        setPublicChainlinkToken();\r\n        oracle = 0xc57B33452b4F7BB189bB5AfaE9cc4aBa1f7a4FD8;\r\n        jobId = \"d5270d1c311941d0b08bead21fea7747\";\r\n        fee = 0.1 * 10 ** 18; // (Varies by network and job)\r\n    }\r\n    \r\n    /**\r\n     * Create a Chainlink request to retrieve API response, find the target\r\n     * data, then multiply by 1000000000000000000 (to remove decimal places from data).\r\n     */\r\n    function requestVolumeData() public returns (bytes32 requestId) \r\n    {\r\n        Chainlink.Request memory request = buildChainlinkRequest(jobId, address(this), this.fulfill.selector);\r\n        \r\n        // Set the URL to perform the GET request on\r\n        request.add(\"get\", \"https://min-api.cryptocompare.com/data/pricemultifull?fsyms=ETH&tsyms=USD\");\r\n        \r\n        // Set the path to find the desired data in the API response, where the response format is:\r\n        // {\"RAW\":\r\n        //   {\"ETH\":\r\n        //    {\"USD\":\r\n        //     {\r\n        //      \"VOLUME24HOUR\": xxx.xxx,\r\n        //     }\r\n        //    }\r\n        //   }\r\n        //  }\r\n        request.add(\"path\", \"RAW.ETH.USD.VOLUME24HOUR\");\r\n        \r\n        // Multiply the result by 1000000000000000000 to remove decimals\r\n        int timesAmount = 10**18;\r\n        request.addInt(\"times\", timesAmount);\r\n        \r\n        // Sends the request\r\n        return sendChainlinkRequestTo(oracle, request, fee);\r\n    }\r\n    \r\n    /**\r\n     * Receive the response in the form of uint256\r\n     */ \r\n    function fulfill(bytes32 _requestId, uint256 _volume) public recordChainlinkFulfillment(_requestId)\r\n    {\r\n        volume = _volume;\r\n    }\r\n\r\n    // function withdrawLink() external {} - Implement a withdraw function to avoid locking your LINK in the contract\r\n}\r\n",
  "sourcePath": "/home/darkblue/blockchain-developer-bootcamp-final-project/contracts/MyEnergyPrice.sol",
  "compiler": {
    "name": "solc",
    "version": "0.8.1+commit.df193b15.Emscripten.clang"
  },
  "schemaVersion": "3.4.3",
  "updatedAt": "2021-11-18T10:06:35.448Z",
  "devdoc": {
    "kind": "dev",
    "methods": {},
    "version": 1
  },
  "userdoc": {
    "kind": "user",
    "methods": {
      "constructor": {
        "notice": "Network: Kovan Oracle: 0xc57B33452b4F7BB189bB5AfaE9cc4aBa1f7a4FD8 (Chainlink Devrel    Node) Job ID: d5270d1c311941d0b08bead21fea7747 Fee: 0.1 LINK"
      },
      "fulfill(bytes32,uint256)": {
        "notice": "Receive the response in the form of uint256"
      },
      "requestVolumeData()": {
        "notice": "Create a Chainlink request to retrieve API response, find the target data, then multiply by 1000000000000000000 (to remove decimal places from data)."
      }
    },
    "notice": "THIS IS AN EXAMPLE CONTRACT WHICH USES HARDCODED VALUES FOR CLARITY. PLEASE DO NOT USE THIS CODE IN PRODUCTION.",
    "version": 1
  }
}