{
  "contractName": "MyHomeEnergyApp",
  "abi": [
    {
      "inputs": [
        {
          "internalType": "uint256",
          "name": "_num",
          "type": "uint256"
        }
      ],
      "stateMutability": "nonpayable",
      "type": "constructor"
    },
    {
      "anonymous": false,
      "inputs": [
        {
          "indexed": true,
          "internalType": "address",
          "name": "_from",
          "type": "address"
        },
        {
          "indexed": false,
          "internalType": "uint256",
          "name": "_type",
          "type": "uint256"
        },
        {
          "indexed": false,
          "internalType": "uint256",
          "name": "_value",
          "type": "uint256"
        }
      ],
      "name": "LogSetAccountBalance",
      "type": "event"
    },
    {
      "anonymous": false,
      "inputs": [
        {
          "indexed": true,
          "internalType": "address",
          "name": "previousOwner",
          "type": "address"
        },
        {
          "indexed": true,
          "internalType": "address",
          "name": "newOwner",
          "type": "address"
        }
      ],
      "name": "OwnershipTransferred",
      "type": "event"
    },
    {
      "inputs": [],
      "name": "accountbalance",
      "outputs": [
        {
          "internalType": "uint256",
          "name": "",
          "type": "uint256"
        }
      ],
      "stateMutability": "view",
      "type": "function"
    },
    {
      "inputs": [],
      "name": "getAccountBalance",
      "outputs": [
        {
          "internalType": "uint256",
          "name": "",
          "type": "uint256"
        }
      ],
      "stateMutability": "view",
      "type": "function"
    },
    {
      "inputs": [],
      "name": "getApplianceDiscount",
      "outputs": [
        {
          "internalType": "uint256",
          "name": "",
          "type": "uint256"
        }
      ],
      "stateMutability": "pure",
      "type": "function"
    },
    {
      "inputs": [],
      "name": "getCoolingDiscount",
      "outputs": [
        {
          "internalType": "uint256",
          "name": "",
          "type": "uint256"
        }
      ],
      "stateMutability": "pure",
      "type": "function"
    },
    {
      "inputs": [
        {
          "internalType": "uint256",
          "name": "typeId",
          "type": "uint256"
        }
      ],
      "name": "getDiscountByType",
      "outputs": [
        {
          "internalType": "uint256",
          "name": "",
          "type": "uint256"
        }
      ],
      "stateMutability": "view",
      "type": "function"
    },
    {
      "inputs": [],
      "name": "getHeatingDiscount",
      "outputs": [
        {
          "internalType": "uint256",
          "name": "",
          "type": "uint256"
        }
      ],
      "stateMutability": "pure",
      "type": "function"
    },
    {
      "inputs": [],
      "name": "getWaterDiscount",
      "outputs": [
        {
          "internalType": "uint256",
          "name": "",
          "type": "uint256"
        }
      ],
      "stateMutability": "pure",
      "type": "function"
    },
    {
      "inputs": [],
      "name": "owner",
      "outputs": [
        {
          "internalType": "address",
          "name": "",
          "type": "address"
        }
      ],
      "stateMutability": "view",
      "type": "function"
    },
    {
      "inputs": [],
      "name": "renounceOwnership",
      "outputs": [],
      "stateMutability": "nonpayable",
      "type": "function"
    },
    {
      "inputs": [
        {
          "internalType": "uint256",
          "name": "x",
          "type": "uint256"
        }
      ],
      "name": "setAccountBalance",
      "outputs": [],
      "stateMutability": "nonpayable",
      "type": "function"
    },
    {
      "inputs": [
        {
          "internalType": "address",
          "name": "newOwner",
          "type": "address"
        }
      ],
      "name": "transferOwnership",
      "outputs": [],
      "stateMutability": "nonpayable",
      "type": "function"
    },
    {
      "inputs": [
        {
          "internalType": "uint256",
          "name": "billtype",
          "type": "uint256"
        },
        {
          "internalType": "uint256",
          "name": "billData",
          "type": "uint256"
        }
      ],
      "name": "payEnergyBill",
      "outputs": [],
      "stateMutability": "nonpayable",
      "type": "function"
    },
    {
      "inputs": [],
      "name": "getPaymentAmount",
      "outputs": [
        {
          "internalType": "uint256",
          "name": "",
          "type": "uint256"
        }
      ],
      "stateMutability": "view",
      "type": "function"
    },
    {
      "inputs": [],
      "name": "getCurrentBalance",
      "outputs": [
        {
          "internalType": "uint256",
          "name": "",
          "type": "uint256"
        }
      ],
      "stateMutability": "view",
      "type": "function"
    },
    {
      "inputs": [],
      "name": "getDiscountValue",
      "outputs": [
        {
          "internalType": "uint256",
          "name": "",
          "type": "uint256"
        }
      ],
      "stateMutability": "view",
      "type": "function"
    },
    {
      "inputs": [],
      "name": "getDiscountStatus",
      "outputs": [
        {
          "internalType": "bool",
          "name": "",
          "type": "bool"
        }
      ],
      "stateMutability": "view",
      "type": "function"
    }
  ],
  "bytecode": "0x608060405233600260006101000a81548173ffffffffffffffffffffffffffffffffffffffff021916908373ffffffffffffffffffffffffffffffffffffffff1602179055503480156200005257600080fd5b506040516200122e3803806200122e8339818101604052810190620000789190620001a6565b80620000996200008d620000c360201b60201c565b620000cb60201b60201c565b80600181905550506000600660006101000a81548160ff0219169083151502179055505062000201565b600033905090565b60008060009054906101000a900473ffffffffffffffffffffffffffffffffffffffff169050816000806101000a81548173ffffffffffffffffffffffffffffffffffffffff021916908373ffffffffffffffffffffffffffffffffffffffff1602179055508173ffffffffffffffffffffffffffffffffffffffff168173ffffffffffffffffffffffffffffffffffffffff167f8be0079c531659141344cd1fd0a4f28419497f9722a3daafe3b4186f6b6457e060405160405180910390a35050565b600081519050620001a081620001e7565b92915050565b600060208284031215620001bf57620001be620001e2565b5b6000620001cf848285016200018f565b91505092915050565b6000819050919050565b600080fd5b620001f281620001d8565b8114620001fe57600080fd5b50565b61101d80620002116000396000f3fe608060405234801561001057600080fd5b50600436106101005760003560e01c8063715018a611610097578063af01cb6111610066578063af01cb6114610269578063e57b3fb214610285578063f2fde38b146102a3578063fcd094a8146102bf57610100565b8063715018a61461020557806372c273a51461020f5780638da5cb5b1461022d578063a57497101461024b57610100565b806355a03e93116100d357806355a03e931461017b5780636896fabf146101ab5780636973f735146101c95780636c4761d2146101e757610100565b806308aba5aa146101055780633e8817aa14610121578063469778301461013f5780634a4263041461015d575b600080fd5b61011f600480360381019061011a9190610bc2565b6102dd565b005b610129610363565b6040516101369190610d9e565b60405180910390f35b6101476103e9565b6040516101549190610d9e565b60405180910390f35b61016561046f565b6040516101729190610d9e565b60405180910390f35b61019560048036038101906101909190610bc2565b610478565b6040516101a29190610d9e565b60405180910390f35b6101b3610560565b6040516101c09190610d9e565b60405180910390f35b6101d16105e6565b6040516101de9190610d9e565b60405180910390f35b6101ef6105ef565b6040516101fc9190610d9e565b60405180910390f35b61020d6105f8565b005b610217610680565b6040516102249190610d9e565b60405180910390f35b610235610686565b6040516102429190610ce8565b60405180910390f35b6102536106af565b6040516102609190610d9e565b60405180910390f35b610283600480360381019061027e9190610bef565b610735565b005b61028d61090b565b60405161029a9190610d9e565b60405180910390f35b6102bd60048036038101906102b89190610b95565b610914565b005b6102c7610a0c565b6040516102d49190610d03565b60405180910390f35b6102e5610a9f565b73ffffffffffffffffffffffffffffffffffffffff16610303610686565b73ffffffffffffffffffffffffffffffffffffffff1614610359576040517f08c379a000000000000000000000000000000000000000000000000000000000815260040161035090610d7e565b60405180910390fd5b8060018190555050565b600061036d610a9f565b73ffffffffffffffffffffffffffffffffffffffff1661038b610686565b73ffffffffffffffffffffffffffffffffffffffff16146103e1576040517f08c379a00000000000000000000000000000000000000000000000000000000081526004016103d890610d7e565b60405180910390fd5b600354905090565b60006103f3610a9f565b73ffffffffffffffffffffffffffffffffffffffff16610411610686565b73ffffffffffffffffffffffffffffffffffffffff1614610467576040517f08c379a000000000000000000000000000000000000000000000000000000000815260040161045e90610d7e565b60405180910390fd5b600554905090565b6000600a905090565b6000610482610a9f565b73ffffffffffffffffffffffffffffffffffffffff166104a0610686565b73ffffffffffffffffffffffffffffffffffffffff16146104f6576040517f08c379a00000000000000000000000000000000000000000000000000000000081526004016104ed90610d7e565b60405180910390fd5b600182141561050e5761050761046f565b905061055b565b60028214156105265761051f6105e6565b905061055b565b600382141561053e576105376105ef565b905061055b565b60048214156105565761054f61090b565b905061055b565b600090505b919050565b600061056a610a9f565b73ffffffffffffffffffffffffffffffffffffffff16610588610686565b73ffffffffffffffffffffffffffffffffffffffff16146105de576040517f08c379a00000000000000000000000000000000000000000000000000000000081526004016105d590610d7e565b60405180910390fd5b600154905090565b6000600f905090565b60006014905090565b610600610a9f565b73ffffffffffffffffffffffffffffffffffffffff1661061e610686565b73ffffffffffffffffffffffffffffffffffffffff1614610674576040517f08c379a000000000000000000000000000000000000000000000000000000000815260040161066b90610d7e565b60405180910390fd5b61067e6000610aa7565b565b60015481565b60008060009054906101000a900473ffffffffffffffffffffffffffffffffffffffff16905090565b60006106b9610a9f565b73ffffffffffffffffffffffffffffffffffffffff166106d7610686565b73ffffffffffffffffffffffffffffffffffffffff161461072d576040517f08c379a000000000000000000000000000000000000000000000000000000000815260040161072490610d7e565b60405180910390fd5b600154905090565b61073d610a9f565b73ffffffffffffffffffffffffffffffffffffffff1661075b610686565b73ffffffffffffffffffffffffffffffffffffffff16146107b1576040517f08c379a00000000000000000000000000000000000000000000000000000000081526004016107a890610d7e565b60405180910390fd5b600182101580156107c3575060048211155b610802576040517f08c379a00000000000000000000000000000000000000000000000000000000081526004016107f990610d1e565b60405180910390fd5b61080b82610478565b60058190555060055481111561083457600554816108299190610df3565b60038190555061083d565b60006003819055505b6003546001541015610884576040517f08c379a000000000000000000000000000000000000000000000000000000000815260040161087b90610d5e565b60405180910390fd5b6003546001546108949190610df3565b6001819055506001600660006101000a81548160ff0219169083151502179055503373ffffffffffffffffffffffffffffffffffffffff167fe942d86438cc21521d3566b08955b8272c0cd4370fa031c47b4430ea648e4dbc836005546040516108ff929190610db9565b60405180910390a25050565b60006019905090565b61091c610a9f565b73ffffffffffffffffffffffffffffffffffffffff1661093a610686565b73ffffffffffffffffffffffffffffffffffffffff1614610990576040517f08c379a000000000000000000000000000000000000000000000000000000000815260040161098790610d7e565b60405180910390fd5b600073ffffffffffffffffffffffffffffffffffffffff168173ffffffffffffffffffffffffffffffffffffffff161415610a00576040517f08c379a00000000000000000000000000000000000000000000000000000000081526004016109f790610d3e565b60405180910390fd5b610a0981610aa7565b50565b6000610a16610a9f565b73ffffffffffffffffffffffffffffffffffffffff16610a34610686565b73ffffffffffffffffffffffffffffffffffffffff1614610a8a576040517f08c379a0000000000000000000000000000000000000000000000000000000008152600401610a8190610d7e565b60405180910390fd5b600660009054906101000a900460ff16905090565b600033905090565b60008060009054906101000a900473ffffffffffffffffffffffffffffffffffffffff169050816000806101000a81548173ffffffffffffffffffffffffffffffffffffffff021916908373ffffffffffffffffffffffffffffffffffffffff1602179055508173ffffffffffffffffffffffffffffffffffffffff168173ffffffffffffffffffffffffffffffffffffffff167f8be0079c531659141344cd1fd0a4f28419497f9722a3daafe3b4186f6b6457e060405160405180910390a35050565b600081359050610b7a81610fb9565b92915050565b600081359050610b8f81610fd0565b92915050565b600060208284031215610bab57610baa610e9e565b5b6000610bb984828501610b6b565b91505092915050565b600060208284031215610bd857610bd7610e9e565b5b6000610be684828501610b80565b91505092915050565b60008060408385031215610c0657610c05610e9e565b5b6000610c1485828601610b80565b9250506020610c2585828601610b80565b9150509250929050565b610c3881610e27565b82525050565b610c4781610e39565b82525050565b6000610c5a602283610de2565b9150610c6582610ea3565b604082019050919050565b6000610c7d602683610de2565b9150610c8882610ef2565b604082019050919050565b6000610ca0602c83610de2565b9150610cab82610f41565b604082019050919050565b6000610cc3602083610de2565b9150610cce82610f90565b602082019050919050565b610ce281610e65565b82525050565b6000602082019050610cfd6000830184610c2f565b92915050565b6000602082019050610d186000830184610c3e565b92915050565b60006020820190508181036000830152610d3781610c4d565b9050919050565b60006020820190508181036000830152610d5781610c70565b9050919050565b60006020820190508181036000830152610d7781610c93565b9050919050565b60006020820190508181036000830152610d9781610cb6565b9050919050565b6000602082019050610db36000830184610cd9565b92915050565b6000604082019050610dce6000830185610cd9565b610ddb6020830184610cd9565b9392505050565b600082825260208201905092915050565b6000610dfe82610e65565b9150610e0983610e65565b925082821015610e1c57610e1b610e6f565b5b828203905092915050565b6000610e3282610e45565b9050919050565b60008115159050919050565b600073ffffffffffffffffffffffffffffffffffffffff82169050919050565b6000819050919050565b7f4e487b7100000000000000000000000000000000000000000000000000000000600052601160045260246000fd5b600080fd5b7f42696c6c2076616c7565206d757374206265206265747765656e203120616e6460008201527f2034000000000000000000000000000000000000000000000000000000000000602082015250565b7f4f776e61626c653a206e6577206f776e657220697320746865207a65726f206160008201527f6464726573730000000000000000000000000000000000000000000000000000602082015250565b7f4d75737420686176652073756666696369656e742062616c616e636520746f2060008201527f70617920666f722062696c6c0000000000000000000000000000000000000000602082015250565b7f4f776e61626c653a2063616c6c6572206973206e6f7420746865206f776e6572600082015250565b610fc281610e27565b8114610fcd57600080fd5b50565b610fd981610e65565b8114610fe457600080fd5b5056fea2646970667358221220c620f0b877749063c04e3fc7c3e528da1dba5bdda8eee8d83c1559bbf5f28ae164736f6c63430008070033",
  "immutableReferences": {},
  "source": "// SPDX-License-Identifier: MIT\npragma solidity ^0.8.7;\n\nimport \"@openzeppelin/contracts/access/Ownable.sol\";\n\n/// @title My Home Energy Base\n/// @author W. HE\n/// @notice Interace for Energy Programme Discount Rates\n/// @dev All function calls are currently implemented without side effects\ninterface EnergyProgramDiscountRate{\n     function getCoolingDiscount() view external returns (uint);\n     function getHeatingDiscount()  view external returns (uint);\n     function getWaterDiscount()  view external returns (uint);\n     function getApplianceDiscount() view external returns (uint);\n  }\n\n/// @title My Home Energy Base\n/// @author W. HE\n/// @notice The contract is to pay home energy bill\n/// @dev All function calls are currently implemented without side effects\nabstract contract MyHomeEnergy is Ownable, EnergyProgramDiscountRate{\n\n  uint256 public accountbalance;\n  address ownerAddr = msg.sender;\n\n  /// @notice  Event to record account balance\n  /// @dev W. H\n  /// @param _from is the from address of transaction. _value is the value of the transaction \n  event LogSetAccountBalance (address indexed _from, uint256 _type, uint256 _value);\n\n  /// @notice  Constructor for home energy bill\n  /// @dev W. H\n  /// @param _num is the value to be set\n  constructor (uint256 _num){ \n    accountbalance = _num;\n  }\n\n  /// @notice Get account balance function\n  /// @dev W. H\n  /// @return Account balance\n  function getAccountBalance() public view onlyOwner returns (uint256){\n    return accountbalance;\n  }\n\n  /// @notice Set account balance function\n  /// @dev W. H\n  /// @param  x is the bill value \n  function setAccountBalance(uint256 x) public onlyOwner{\n    accountbalance = x;\n  }\n\n  /// @notice Get discount by type\n  /// @dev W. H\n  /// @param  typeId is the bill value\n  function getDiscountByType(uint256 typeId) view public onlyOwner returns (uint){\n      // Cooling\n      if (typeId == 1)\n      {\n        return getCoolingDiscount();\n      }\n      // Heating\n      if (typeId == 2)\n      {\n        return getHeatingDiscount();\n      }\n      // Water\n      if (typeId == 3)\n      {\n        return getWaterDiscount();\n      }\n      // Appliance\n      if (typeId == 4)\n      {\n        return getApplianceDiscount();\n      }\n      return 0;\n  }\n\n  /// @notice Get cooling discount rate\n  /// @dev W. H\n  /// @return Cooling discount rate\n function getCoolingDiscount() override public pure returns (uint){\n    return 10;\n }\n\n  /// @notice  Get heating discount rate\n  /// @dev W. H\n  /// @return Heating discount rate\n  function getHeatingDiscount() override public pure returns (uint){\n    return 15;\n  }\n  \n  /// @notice Get water discount rate\n  /// @dev W. H\n  /// @return Water discount rate\n  function getWaterDiscount() override public pure returns (uint){\n    return 20;\n  }\n  \n  /// @notice Get appliance discount rate\n  /// @dev W. H\n  /// @return Appliance discount rate\n  function getApplianceDiscount() override public pure returns (uint){\n    return 25;\n  }\n}\n\n/// @title My Home Energy Application\n/// @author W. HE\n/// @notice The contract is to record home energy usage at special rates\n/// @dev All function calls are currently implemented without side effects\ncontract MyHomeEnergyApp is MyHomeEnergy {\n\n  uint256  paymentAmount;\n  uint256 discountRate;\n  uint256 discountValue;\n  bool discountStatus;\n\n    /// @notice Constructor for My Home Energy Application\n    /// @dev W. H\n    /// @param _num is the value to be set\n  constructor(uint256 _num) MyHomeEnergy(_num){\n    discountStatus = false;\n  }\n\n    /// @notice Pay Energy bill function\n    /// @dev W. H\n    /// @param billtype is type of the bill, between 1 and 4. billData is the bill amount \n  function payEnergyBill (uint256 billtype, uint256 billData) onlyOwner public{\n      require(billtype >= 1 && billtype <= 4, \"Bill value must be between 1 and 4\");\n      // Get the rate, based on bill type\n      discountValue = getDiscountByType(billtype);\n      if (billData > discountValue){\n          paymentAmount = billData - discountValue;\n      }else {\n          paymentAmount = 0;  \n      }\n      require(accountbalance >= paymentAmount, \"Must have sufficient balance to pay for bill\");\n      accountbalance = accountbalance - paymentAmount;\n      discountStatus = true;\n      emit LogSetAccountBalance(msg.sender, billtype, discountValue);\n  }\n\n    /// @notice Get Payment Amount\n    /// @dev W. H\n     /// @return paymentAmount, to indicate if discount has been given\n     function getPaymentAmount()  public view onlyOwner returns (uint256){\n        return paymentAmount;\n     }\n\n    /// @notice Get Current Balance\n    /// @dev W. H\n     /// @return accountbalance, to indicate if discount has been given\n     function getCurrentBalance()  public view onlyOwner returns (uint256){\n        return accountbalance;\n     }\n\n    /// @notice Get Discount Value\n    /// @dev W. H\n     /// @return discountValue, to indicate if discount has been given\n     function getDiscountValue()  public view onlyOwner returns (uint256){\n        return discountValue;\n     }\n\n    /// @notice Get Discount Status\n    /// @dev W. H\n     /// @return discountStatus, to indicate if discount has been given\n     function getDiscountStatus()  public view onlyOwner returns (bool){\n        return discountStatus;\n     }\n}\n\n",
  "sourcePath": "/home/darkblue/blockchain-developer-bootcamp-final-project/contracts/MyHomeEnergy.sol",
  "compiler": {
    "name": "solc",
    "version": "0.8.7+commit.e28d00a7.Emscripten.clang"
  },
  "schemaVersion": "3.4.3",
  "updatedAt": "2021-11-19T09:48:03.937Z",
  "devdoc": {
    "author": "W. HE",
    "details": "All function calls are currently implemented without side effects",
    "kind": "dev",
    "methods": {
      "constructor": {
        "details": "W. H",
        "params": {
          "_num": "is the value to be set"
        }
      },
      "getAccountBalance()": {
        "details": "W. H",
        "returns": {
          "_0": "Account balance"
        }
      },
      "getApplianceDiscount()": {
        "details": "W. H",
        "returns": {
          "_0": "Appliance discount rate"
        }
      },
      "getCoolingDiscount()": {
        "details": "W. H",
        "returns": {
          "_0": "Cooling discount rate"
        }
      },
      "getCurrentBalance()": {
        "details": "W. H",
        "returns": {
          "_0": "accountbalance, to indicate if discount has been given"
        }
      },
      "getDiscountByType(uint256)": {
        "details": "W. H",
        "params": {
          "typeId": "is the bill value"
        }
      },
      "getDiscountStatus()": {
        "details": "W. H",
        "returns": {
          "_0": "discountStatus, to indicate if discount has been given"
        }
      },
      "getDiscountValue()": {
        "details": "W. H",
        "returns": {
          "_0": "discountValue, to indicate if discount has been given"
        }
      },
      "getHeatingDiscount()": {
        "details": "W. H",
        "returns": {
          "_0": "Heating discount rate"
        }
      },
      "getPaymentAmount()": {
        "details": "W. H",
        "returns": {
          "_0": "paymentAmount, to indicate if discount has been given"
        }
      },
      "getWaterDiscount()": {
        "details": "W. H",
        "returns": {
          "_0": "Water discount rate"
        }
      },
      "owner()": {
        "details": "Returns the address of the current owner."
      },
      "payEnergyBill(uint256,uint256)": {
        "details": "W. H",
        "params": {
          "billtype": "is type of the bill, between 1 and 4. billData is the bill amount "
        }
      },
      "renounceOwnership()": {
        "details": "Leaves the contract without owner. It will not be possible to call `onlyOwner` functions anymore. Can only be called by the current owner. NOTE: Renouncing ownership will leave the contract without an owner, thereby removing any functionality that is only available to the owner."
      },
      "setAccountBalance(uint256)": {
        "details": "W. H",
        "params": {
          "x": "is the bill value "
        }
      },
      "transferOwnership(address)": {
        "details": "Transfers ownership of the contract to a new account (`newOwner`). Can only be called by the current owner."
      }
    },
    "title": "My Home Energy Application",
    "version": 1
  },
  "userdoc": {
    "events": {
      "LogSetAccountBalance(address,uint256,uint256)": {
        "notice": "Event to record account balance"
      }
    },
    "kind": "user",
    "methods": {
      "constructor": {
        "notice": "Constructor for My Home Energy Application"
      },
      "getAccountBalance()": {
        "notice": "Get account balance function"
      },
      "getApplianceDiscount()": {
        "notice": "Get appliance discount rate"
      },
      "getCoolingDiscount()": {
        "notice": "Get cooling discount rate"
      },
      "getCurrentBalance()": {
        "notice": "Get Current Balance"
      },
      "getDiscountByType(uint256)": {
        "notice": "Get discount by type"
      },
      "getDiscountStatus()": {
        "notice": "Get Discount Status"
      },
      "getDiscountValue()": {
        "notice": "Get Discount Value"
      },
      "getHeatingDiscount()": {
        "notice": "Get heating discount rate"
      },
      "getPaymentAmount()": {
        "notice": "Get Payment Amount"
      },
      "getWaterDiscount()": {
        "notice": "Get water discount rate"
      },
      "payEnergyBill(uint256,uint256)": {
        "notice": "Pay Energy bill function"
      },
      "setAccountBalance(uint256)": {
        "notice": "Set account balance function"
      }
    },
    "notice": "The contract is to record home energy usage at special rates",
    "version": 1
  }
}