{
  "contractName": "MyHomeEnergy",
  "abi": [
    {
      "inputs": [
        {
          "internalType": "uint256",
          "name": "_num",
          "type": "uint256"
        }
      ],
      "payable": false,
      "stateMutability": "nonpayable",
      "type": "constructor"
    },
    {
      "constant": true,
      "inputs": [],
      "name": "billData",
      "outputs": [
        {
          "internalType": "uint256",
          "name": "",
          "type": "uint256"
        }
      ],
      "payable": false,
      "stateMutability": "view",
      "type": "function"
    },
    {
      "constant": true,
      "inputs": [],
      "name": "getBillData",
      "outputs": [
        {
          "internalType": "uint256",
          "name": "",
          "type": "uint256"
        }
      ],
      "payable": false,
      "stateMutability": "view",
      "type": "function"
    },
    {
      "constant": false,
      "inputs": [
        {
          "internalType": "uint256",
          "name": "x",
          "type": "uint256"
        }
      ],
      "name": "setBillData",
      "outputs": [],
      "payable": false,
      "stateMutability": "nonpayable",
      "type": "function"
    }
  ],
  "bytecode": "0x608060405233600160006101000a81548173ffffffffffffffffffffffffffffffffffffffff021916908373ffffffffffffffffffffffffffffffffffffffff16021790555034801561005157600080fd5b5060405161025d38038061025d8339818101604052602081101561007457600080fd5b810190808051906020019092919050505080600081905550506101c18061009c6000396000f3fe608060405234801561001057600080fd5b50600436106100415760003560e01c806317caec27146100465780638d3c81cf14610074578063e395764914610092575b600080fd5b6100726004803603602081101561005c57600080fd5b81019080803590602001909291905050506100b0565b005b61007c61017d565b6040518082815260200191505060405180910390f35b61009a610183565b6040518082815260200191505060405180910390f35b600160009054906101000a900473ffffffffffffffffffffffffffffffffffffffff1673ffffffffffffffffffffffffffffffffffffffff163373ffffffffffffffffffffffffffffffffffffffff1614610173576040517f08c379a000000000000000000000000000000000000000000000000000000000815260040180806020018281038252600e8152602001807f4e6f7420746865206f776e65722100000000000000000000000000000000000081525060200191505060405180910390fd5b8060008190555050565b60005481565b6000805490509056fea265627a7a72315820a96feef40a5e3cdf3445d87ff711f96391a865486caac5391c19b676a0d248b464736f6c63430005100032",
  "source": "// SPDX-License-Identifier: MIT\npragma solidity >=0.5.16 <0.9.00;\n\n// REQUIREMENTS \n// (1) Are commented to the specs described here\n//   -> https://docs.soliditylang.org/en/latest/natspec-format.html\n// (2) Use at least two design patterns from the \"Smart Contracts\" section (SEE A LIST OF DESIGN PATTERNS HERE)\n// (3) Protect against two attack vectors from the \"Smart Contracts\" section with its SWC number (SEE A LIST OF \n//  ATTACK VECTORS HERE)\n//  -> https://swcregistry.io/ \n// (4) Inherits from at least one library or interface\n// (5) Can be easily compiled, migrated and tested (see #5)\n\n\n/// @title My Home Energy payment online\n/// @author W. HE\n/// @notice The contract is to make payment for home energy\n/// @dev All function calls are currently implemented without side effects\ncontract MyHomeEnergy {\n  uint256 public billData;\n  address owner = msg.sender;\n\n  //constructor (uint256 _num) {\n  constructor (uint256 _num) public {\n    billData = _num;\n  }\n\n  function getBillData() public view returns (uint256){\n    return billData;\n  }\n\n  function setBillData(uint256 x) public {\n    require(msg.sender == owner, \"Not the owner!\");\n    billData = x;\n  }\n}\n",
  "sourcePath": "/home/darkblue/blockchain-developer-bootcamp-final-project/contracts/MyHomeEnergy.sol",
  "compiler": {
    "name": "solc",
    "version": "0.5.16+commit.9c3226ce.Emscripten.clang"
  },
  "schemaVersion": "3.4.3",
  "updatedAt": "2021-11-14T00:03:12.951Z",
  "devdoc": {
    "author": "W. HE",
    "details": "All function calls are currently implemented without side effects",
    "methods": {},
    "title": "My Home Energy payment online"
  },
  "userdoc": {
    "methods": {},
    "notice": "The contract is to make payment for home energy"
  }
}