{
  "contractName": "MyHomeEnergySpecial",
  "abi": [
    {
      "inputs": [
        {
          "internalType": "uint256",
          "name": "_num",
          "type": "uint256"
        }
      ],
      "payable": false,
      "stateMutability": "nonpayable",
      "type": "constructor"
    },
    {
      "anonymous": false,
      "inputs": [
        {
          "indexed": true,
          "internalType": "address",
          "name": "_from",
          "type": "address"
        },
        {
          "indexed": false,
          "internalType": "uint256",
          "name": "_value",
          "type": "uint256"
        }
      ],
      "name": "LogSetBillData",
      "type": "event"
    },
    {
      "constant": true,
      "inputs": [],
      "name": "billData",
      "outputs": [
        {
          "internalType": "uint256",
          "name": "",
          "type": "uint256"
        }
      ],
      "payable": false,
      "stateMutability": "view",
      "type": "function"
    },
    {
      "constant": true,
      "inputs": [],
      "name": "getBillData",
      "outputs": [
        {
          "internalType": "uint256",
          "name": "",
          "type": "uint256"
        }
      ],
      "payable": false,
      "stateMutability": "view",
      "type": "function"
    },
    {
      "constant": false,
      "inputs": [
        {
          "internalType": "uint256",
          "name": "x",
          "type": "uint256"
        }
      ],
      "name": "setBillData",
      "outputs": [],
      "payable": false,
      "stateMutability": "nonpayable",
      "type": "function"
    },
    {
      "constant": false,
      "inputs": [
        {
          "internalType": "uint256",
          "name": "x",
          "type": "uint256"
        }
      ],
      "name": "applySpecialValue",
      "outputs": [],
      "payable": false,
      "stateMutability": "nonpayable",
      "type": "function"
    }
  ],
  "bytecode": "0x608060405233600160006101000a81548173ffffffffffffffffffffffffffffffffffffffff021916908373ffffffffffffffffffffffffffffffffffffffff16021790555034801561005157600080fd5b506040516103b33803806103b38339818101604052602081101561007457600080fd5b8101908080519060200190929190505050808060008190555050506103158061009e6000396000f3fe608060405234801561001057600080fd5b506004361061004c5760003560e01c806317caec2714610051578063696661d41461007f5780638d3c81cf146100ad578063e3957649146100cb575b600080fd5b61007d6004803603602081101561006757600080fd5b81019080803590602001909291905050506100e9565b005b6100ab6004803603602081101561009557600080fd5b8101908080359060200190929190505050610204565b005b6100b56102d1565b6040518082815260200191505060405180910390f35b6100d36102d7565b6040518082815260200191505060405180910390f35b600160009054906101000a900473ffffffffffffffffffffffffffffffffffffffff1673ffffffffffffffffffffffffffffffffffffffff163373ffffffffffffffffffffffffffffffffffffffff16146101ac576040517f08c379a000000000000000000000000000000000000000000000000000000000815260040180806020018281038252600e8152602001807f4e6f7420746865206f776e65722100000000000000000000000000000000000081525060200191505060405180910390fd5b806000819055503373ffffffffffffffffffffffffffffffffffffffff167f9c75dd06e29cf004ce2c6649e35b9f67686083c9ad282e7ac85531977acea5f1826040518082815260200191505060405180910390a250565b600160009054906101000a900473ffffffffffffffffffffffffffffffffffffffff1673ffffffffffffffffffffffffffffffffffffffff163373ffffffffffffffffffffffffffffffffffffffff16146102c7576040517f08c379a000000000000000000000000000000000000000000000000000000000815260040180806020018281038252600e8152602001807f4e6f7420746865206f776e65722100000000000000000000000000000000000081525060200191505060405180910390fd5b8060008190555050565b60005481565b6000805490509056fea265627a7a7231582091c68da2392f456c0f2bdbf1d621ae7d881da9f36451f6222d39faac7db65a1664736f6c63430005100032",
  "source": "// SPDX-License-Identifier: MIT\npragma solidity >=0.5.16 <0.9.00;\n\n// REQUIREMENTS \n// (1) Are commented to the specs described here\n//   -> https://docs.soliditylang.org/en/latest/natspec-format.html\n// (2) Use at least two design patterns from the \"Smart Contracts\" section (SEE A LIST OF DESIGN PATTERNS HERE)\n// (3) Protect against two attack vectors from the \"Smart Contracts\" section with its SWC number (SEE A LIST OF \n//  ATTACK VECTORS HERE)\n//  -> https://swcregistry.io/ \n// (4) Inherits from at least one library or interface\n// (5) Can be easily compiled, migrated and tested (see #5)\n\n\n/// @title My Home Energy Base\n/// @author W. HE\n/// @notice The contract is to record home energy usage\n/// @dev All function calls are currently implemented without side effects\n\ncontract MyHomeEnergy {\n  uint256 public billData;\n  address owner = msg.sender;\n\n  event LogSetBillData (address indexed _from, uint256 _value);\n\n  constructor (uint256 _num) public {\n    billData = _num;\n  }\n\n  modifier onlyOwner{\n     require(msg.sender == owner, \"Not the owner!\");\n     _;\n  }\n\n  function getBillData() public view returns (uint256){\n    return billData;\n  }\n\n  function setBillData(uint256 x) public onlyOwner{\n    \n    billData = x;\n    emit LogSetBillData(msg.sender, x);\n  }\n}\n\n/// @title My Home Energy Special \n/// @author W. HE\n/// @notice The contract is to record home energy usage at special rates\n/// @dev All function calls are currently implemented without side effects\ncontract MyHomeEnergySpecial is MyHomeEnergy{\n\n  constructor(uint256 _num) MyHomeEnergy(_num) public{}\n\n   function applySpecialValue(uint256 x) public onlyOwner{\n       billData = x;\n   }\n  // // Apply special value to the home energy value\n  // function applySpecialValue (uint256 percent) public{\n  //      //require(billData >0, \"Bill value must be greater than 0!\");\n  //      //require(percent >0, \"Percent value must be greater than 0!\");\n  //      //require(percent <15, \"Percent value must be less than 15!\");\n  //      //require(msg.sender == owner, \"Not the owner!\");\n  //      // percent between 0.01 and 0.10\n  //      billData = billData * percent / 100;\n  //      emit LogSetBillData(msg.sender, billData);\n  // }\n}\n\n",
  "sourcePath": "/home/darkblue/blockchain-developer-bootcamp-final-project/contracts/MyHomeEnergy.sol",
  "compiler": {
    "name": "solc",
    "version": "0.5.16+commit.9c3226ce.Emscripten.clang"
  },
  "schemaVersion": "3.4.3",
  "updatedAt": "2021-11-14T10:04:16.347Z",
  "devdoc": {
    "author": "W. HE",
    "details": "All function calls are currently implemented without side effects",
    "methods": {},
    "title": "My Home Energy Special "
  },
  "userdoc": {
    "methods": {},
    "notice": "The contract is to record home energy usage at special rates"
  }
}