{
  "contractName": "MyHomeEnergyApp",
  "abi": [
    {
      "inputs": [
        {
          "internalType": "uint256",
          "name": "_num",
          "type": "uint256"
        }
      ],
      "stateMutability": "nonpayable",
      "type": "constructor"
    },
    {
      "anonymous": false,
      "inputs": [
        {
          "indexed": true,
          "internalType": "address",
          "name": "_from",
          "type": "address"
        },
        {
          "indexed": false,
          "internalType": "uint256",
          "name": "_type",
          "type": "uint256"
        },
        {
          "indexed": false,
          "internalType": "uint256",
          "name": "_value",
          "type": "uint256"
        }
      ],
      "name": "LogSetAccountBalance",
      "type": "event"
    },
    {
      "anonymous": false,
      "inputs": [
        {
          "indexed": true,
          "internalType": "address",
          "name": "previousOwner",
          "type": "address"
        },
        {
          "indexed": true,
          "internalType": "address",
          "name": "newOwner",
          "type": "address"
        }
      ],
      "name": "OwnershipTransferred",
      "type": "event"
    },
    {
      "inputs": [],
      "name": "accountbalance",
      "outputs": [
        {
          "internalType": "uint256",
          "name": "",
          "type": "uint256"
        }
      ],
      "stateMutability": "view",
      "type": "function",
      "constant": true
    },
    {
      "inputs": [],
      "name": "getAccountBalance",
      "outputs": [
        {
          "internalType": "uint256",
          "name": "",
          "type": "uint256"
        }
      ],
      "stateMutability": "view",
      "type": "function",
      "constant": true
    },
    {
      "inputs": [],
      "name": "getApplianceDiscount",
      "outputs": [
        {
          "internalType": "uint256",
          "name": "",
          "type": "uint256"
        }
      ],
      "stateMutability": "pure",
      "type": "function",
      "constant": true
    },
    {
      "inputs": [],
      "name": "getCoolingDiscount",
      "outputs": [
        {
          "internalType": "uint256",
          "name": "",
          "type": "uint256"
        }
      ],
      "stateMutability": "pure",
      "type": "function",
      "constant": true
    },
    {
      "inputs": [
        {
          "internalType": "uint256",
          "name": "typeId",
          "type": "uint256"
        }
      ],
      "name": "getDiscountByType",
      "outputs": [
        {
          "internalType": "uint256",
          "name": "",
          "type": "uint256"
        }
      ],
      "stateMutability": "view",
      "type": "function",
      "constant": true
    },
    {
      "inputs": [],
      "name": "getHeatingDiscount",
      "outputs": [
        {
          "internalType": "uint256",
          "name": "",
          "type": "uint256"
        }
      ],
      "stateMutability": "pure",
      "type": "function",
      "constant": true
    },
    {
      "inputs": [],
      "name": "getWaterDiscount",
      "outputs": [
        {
          "internalType": "uint256",
          "name": "",
          "type": "uint256"
        }
      ],
      "stateMutability": "pure",
      "type": "function",
      "constant": true
    },
    {
      "inputs": [],
      "name": "owner",
      "outputs": [
        {
          "internalType": "address",
          "name": "",
          "type": "address"
        }
      ],
      "stateMutability": "view",
      "type": "function",
      "constant": true
    },
    {
      "inputs": [],
      "name": "renounceOwnership",
      "outputs": [],
      "stateMutability": "nonpayable",
      "type": "function"
    },
    {
      "inputs": [
        {
          "internalType": "uint256",
          "name": "x",
          "type": "uint256"
        }
      ],
      "name": "setAccountBalance",
      "outputs": [],
      "stateMutability": "nonpayable",
      "type": "function"
    },
    {
      "inputs": [
        {
          "internalType": "address",
          "name": "newOwner",
          "type": "address"
        }
      ],
      "name": "transferOwnership",
      "outputs": [],
      "stateMutability": "nonpayable",
      "type": "function"
    },
    {
      "inputs": [
        {
          "internalType": "uint256",
          "name": "billtype",
          "type": "uint256"
        },
        {
          "internalType": "uint256",
          "name": "billData",
          "type": "uint256"
        }
      ],
      "name": "applyDiscount",
      "outputs": [],
      "stateMutability": "nonpayable",
      "type": "function"
    }
  ],
  "bytecode": "0x608060405233600260006101000a81548173ffffffffffffffffffffffffffffffffffffffff021916908373ffffffffffffffffffffffffffffffffffffffff16021790555034801561005157600080fd5b50604051610e7b380380610e7b8339818101604052810190610073919061017f565b8061009061008561009e60201b60201c565b6100a660201b60201c565b8060018190555050506101c9565b600033905090565b60008060009054906101000a900473ffffffffffffffffffffffffffffffffffffffff169050816000806101000a81548173ffffffffffffffffffffffffffffffffffffffff021916908373ffffffffffffffffffffffffffffffffffffffff1602179055508173ffffffffffffffffffffffffffffffffffffffff168173ffffffffffffffffffffffffffffffffffffffff167f8be0079c531659141344cd1fd0a4f28419497f9722a3daafe3b4186f6b6457e060405160405180910390a35050565b600081519050610179816101b2565b92915050565b60006020828403121561019157600080fd5b600061019f8482850161016a565b91505092915050565b6000819050919050565b6101bb816101a8565b81146101c657600080fd5b50565b610ca3806101d86000396000f3fe608060405234801561001057600080fd5b50600436106100b45760003560e01c8063715018a611610071578063715018a61461017d57806372c273a5146101875780637944b6d2146101a55780638da5cb5b146101c1578063e57b3fb2146101df578063f2fde38b146101fd576100b4565b806308aba5aa146100b95780634a426304146100d557806355a03e93146100f35780636896fabf146101235780636973f735146101415780636c4761d21461015f575b600080fd5b6100d360048036038101906100ce919061088b565b610219565b005b6100dd61029f565b6040516100ea9190610a35565b60405180910390f35b61010d6004803603810190610108919061088b565b6102a8565b60405161011a9190610a35565b60405180910390f35b61012b610390565b6040516101389190610a35565b60405180910390f35b610149610416565b6040516101569190610a35565b60405180910390f35b61016761041f565b6040516101749190610a35565b60405180910390f35b610185610428565b005b61018f6104b0565b60405161019c9190610a35565b60405180910390f35b6101bf60048036038101906101ba91906108b4565b6104b6565b005b6101c9610642565b6040516101d6919061099a565b60405180910390f35b6101e761066b565b6040516101f49190610a35565b60405180910390f35b61021760048036038101906102129190610862565b610674565b005b61022161076c565b73ffffffffffffffffffffffffffffffffffffffff1661023f610642565b73ffffffffffffffffffffffffffffffffffffffff1614610295576040517f08c379a000000000000000000000000000000000000000000000000000000000815260040161028c906109f5565b60405180910390fd5b8060018190555050565b6000600a905090565b60006102b261076c565b73ffffffffffffffffffffffffffffffffffffffff166102d0610642565b73ffffffffffffffffffffffffffffffffffffffff1614610326576040517f08c379a000000000000000000000000000000000000000000000000000000000815260040161031d906109f5565b60405180910390fd5b600182141561033e5761033761029f565b905061038b565b60028214156103565761034f610416565b905061038b565b600382141561036e5761036761041f565b905061038b565b60048214156103865761037f61066b565b905061038b565b600090505b919050565b600061039a61076c565b73ffffffffffffffffffffffffffffffffffffffff166103b8610642565b73ffffffffffffffffffffffffffffffffffffffff161461040e576040517f08c379a0000000000000000000000000000000000000000000000000000000008152600401610405906109f5565b60405180910390fd5b600154905090565b6000600f905090565b60006014905090565b61043061076c565b73ffffffffffffffffffffffffffffffffffffffff1661044e610642565b73ffffffffffffffffffffffffffffffffffffffff16146104a4576040517f08c379a000000000000000000000000000000000000000000000000000000000815260040161049b906109f5565b60405180910390fd5b6104ae6000610774565b565b60015481565b6104be61076c565b73ffffffffffffffffffffffffffffffffffffffff166104dc610642565b73ffffffffffffffffffffffffffffffffffffffff1614610532576040517f08c379a0000000000000000000000000000000000000000000000000000000008152600401610529906109f5565b60405180910390fd5b60018210158015610544575060048211155b610583576040517f08c379a000000000000000000000000000000000000000000000000000000000815260040161057a906109b5565b60405180910390fd5b61058c826102a8565b60038190555060035481116105d6576040517f08c379a00000000000000000000000000000000000000000000000000000000081526004016105cd90610a15565b60405180910390fd5b6003546001546105e69190610a8a565b6001819055503373ffffffffffffffffffffffffffffffffffffffff167fe942d86438cc21521d3566b08955b8272c0cd4370fa031c47b4430ea648e4dbc83600354604051610636929190610a50565b60405180910390a25050565b60008060009054906101000a900473ffffffffffffffffffffffffffffffffffffffff16905090565b60006019905090565b61067c61076c565b73ffffffffffffffffffffffffffffffffffffffff1661069a610642565b73ffffffffffffffffffffffffffffffffffffffff16146106f0576040517f08c379a00000000000000000000000000000000000000000000000000000000081526004016106e7906109f5565b60405180910390fd5b600073ffffffffffffffffffffffffffffffffffffffff168173ffffffffffffffffffffffffffffffffffffffff161415610760576040517f08c379a0000000000000000000000000000000000000000000000000000000008152600401610757906109d5565b60405180910390fd5b61076981610774565b50565b600033905090565b60008060009054906101000a900473ffffffffffffffffffffffffffffffffffffffff169050816000806101000a81548173ffffffffffffffffffffffffffffffffffffffff021916908373ffffffffffffffffffffffffffffffffffffffff1602179055508173ffffffffffffffffffffffffffffffffffffffff168173ffffffffffffffffffffffffffffffffffffffff167f8be0079c531659141344cd1fd0a4f28419497f9722a3daafe3b4186f6b6457e060405160405180910390a35050565b60008135905061084781610c3f565b92915050565b60008135905061085c81610c56565b92915050565b60006020828403121561087457600080fd5b600061088284828501610838565b91505092915050565b60006020828403121561089d57600080fd5b60006108ab8482850161084d565b91505092915050565b600080604083850312156108c757600080fd5b60006108d58582860161084d565b92505060206108e68582860161084d565b9150509250929050565b6108f981610abe565b82525050565b600061090c602283610a79565b915061091782610b29565b604082019050919050565b600061092f602683610a79565b915061093a82610b78565b604082019050919050565b6000610952602083610a79565b915061095d82610bc7565b602082019050919050565b6000610975602583610a79565b915061098082610bf0565b604082019050919050565b61099481610af0565b82525050565b60006020820190506109af60008301846108f0565b92915050565b600060208201905081810360008301526109ce816108ff565b9050919050565b600060208201905081810360008301526109ee81610922565b9050919050565b60006020820190508181036000830152610a0e81610945565b9050919050565b60006020820190508181036000830152610a2e81610968565b9050919050565b6000602082019050610a4a600083018461098b565b92915050565b6000604082019050610a65600083018561098b565b610a72602083018461098b565b9392505050565b600082825260208201905092915050565b6000610a9582610af0565b9150610aa083610af0565b925082821015610ab357610ab2610afa565b5b828203905092915050565b6000610ac982610ad0565b9050919050565b600073ffffffffffffffffffffffffffffffffffffffff82169050919050565b6000819050919050565b7f4e487b7100000000000000000000000000000000000000000000000000000000600052601160045260246000fd5b7f42696c6c2076616c7565206d757374206265206265747765656e203120616e6460008201527f2034000000000000000000000000000000000000000000000000000000000000602082015250565b7f4f776e61626c653a206e6577206f776e657220697320746865207a65726f206160008201527f6464726573730000000000000000000000000000000000000000000000000000602082015250565b7f4f776e61626c653a2063616c6c6572206973206e6f7420746865206f776e6572600082015250565b7f446973636f756e74206d757374206265206c657373207468616e2062696c6c2060008201527f76616c7565000000000000000000000000000000000000000000000000000000602082015250565b610c4881610abe565b8114610c5357600080fd5b50565b610c5f81610af0565b8114610c6a57600080fd5b5056fea2646970667358221220c8df63fbef65f665f81028aa1b9682e6a1edc2d658fcd50769008df554f1b36c64736f6c63430008010033",
  "immutableReferences": {},
  "source": "// SPDX-License-Identifier: MIT\npragma solidity ^0.8.0;\n\n// REQUIREMENTS \n// (2) Use at least two design patterns from the \"Smart Contracts\" section (SEE A LIST OF DESIGN PATTERNS HERE)\n// (3) Protect against two attack vectors from the \"Smart Contracts\" section with its SWC number (SEE A LIST OF \n//  ATTACK VECTORS HERE)\n//  -> https://swcregistry.io/ \n\nimport \"@openzeppelin/contracts/access/Ownable.sol\";\n\n/// @title My Home Energy Base\n/// @author W. HE\n/// @notice ....\n/// @dev ....\ninterface EnergyProgramDiscountRate{\n     function getCoolingDiscount() view external returns (uint);\n     function getHeatingDiscount()  view external returns (uint);\n     function getWaterDiscount()  view external returns (uint);\n     function getApplianceDiscount() view external returns (uint);\n  }\n\n/// @title My Home Energy Base\n/// @author W. HE\n/// @notice The contract is to pay home energy usage\n/// @dev All function calls are currently implemented without side effects\nabstract contract MyHomeEnergy is Ownable, EnergyProgramDiscountRate{\n  uint256 public accountbalance;\n  address ownerAddr = msg.sender;\n\n  /// @notice \n  /// @dev W. H\n  /// @param _from is the from address of transaction. _value is the value of the transaction \n  event LogSetAccountBalance (address indexed _from, uint256 _type, uint256 _value);\n\n  /// @notice \n  /// @dev W. H\n  /// @param _num is the value to be set\n  constructor (uint256 _num){ \n    accountbalance = _num;\n  }\n\n  /// @notice \n  /// @dev W. H\n  /// @return bill data\n  function getAccountBalance() public view onlyOwner returns (uint256){\n    return accountbalance;\n  }\n\n  /// @notice \n  /// @dev W. H\n  /// @param  x is the bill value \n  function setAccountBalance(uint256 x) public onlyOwner{\n    accountbalance = x;\n  }\n\n  /// @notice \n  /// @dev W. H\n  /// @param  typeId is the bill value\n  function getDiscountByType(uint256 typeId) view public onlyOwner returns (uint){\n      // Cooling\n      if (typeId == 1)\n      {\n        return getCoolingDiscount();\n      }\n      // Heating\n      if (typeId == 2)\n      {\n        return getHeatingDiscount();\n      }\n      // Water\n      if (typeId == 3)\n      {\n        return getWaterDiscount();\n      }\n      // Appliance\n      if (typeId == 4)\n      {\n        return getApplianceDiscount();\n      }\n      return 0;\n  }\n\n  /// @notice \n  /// @dev W. H\n  /// @return Cooling discount rate\n function getCoolingDiscount() override public pure returns (uint){\n    return 10;\n }\n\n  /// @notice \n  /// @dev W. H\n  /// @return Heating discount rate\n  function getHeatingDiscount() override public pure returns (uint){\n    return 15;\n  }\n  \n  /// @notice \n  /// @dev W. H\n  /// @return Water discount rate\n  function getWaterDiscount() override public pure returns (uint){\n    return 20;\n  }\n  \n  /// @notice \n  /// @dev W. H\n  /// @return Appliance discount rate\n  function getApplianceDiscount() override public pure returns (uint){\n    return 25;\n  }\n}\n\n/// @title My Home Energy Application\n/// @author W. HE\n/// @notice The contract is to record home energy usage at special rates\n/// @dev All function calls are currently implemented without side effects\ncontract MyHomeEnergyApp is MyHomeEnergy{\n\n    uint256 discountValue;\n\n    /// @notice \n    /// @dev W. H\n    /// @param _num is the value to be set\n  constructor(uint256 _num) MyHomeEnergy(_num){\n  }\n\n    /// @notice \n    /// @dev W. H\n    /// @param billtype is type of the bill, between 1 and 4. billData is the bill amount \n  function applyDiscount (uint256 billtype, uint256 billData) onlyOwner public{\n       require(billtype >= 1 && billtype <= 4, \"Bill value must be between 1 and 4\");\n       // Get the rate, based on bill type\n       discountValue = getDiscountByType(billtype);\n       require(billData > discountValue, \"Discount must be less than bill value\");\n       accountbalance = accountbalance  - discountValue;\n       //setBillData();\n       emit LogSetAccountBalance(msg.sender, billtype, discountValue);\n  }\n}\n\n",
  "sourcePath": "/home/darkblue/blockchain-developer-bootcamp-final-project/contracts/MyHomeEnergy.sol",
  "compiler": {
    "name": "solc",
    "version": "0.8.1+commit.df193b15.Emscripten.clang"
  },
  "schemaVersion": "3.4.3",
  "updatedAt": "2021-11-18T06:20:16.589Z",
  "networkType": "ethereum",
  "devdoc": {
    "author": "W. HE",
    "details": "All function calls are currently implemented without side effects",
    "kind": "dev",
    "methods": {
      "applyDiscount(uint256,uint256)": {
        "details": "W. H",
        "params": {
          "billtype": "is type of the bill, between 1 and 4. billData is the bill amount "
        }
      },
      "constructor": {
        "details": "W. H",
        "params": {
          "_num": "is the value to be set"
        }
      },
      "getAccountBalance()": {
        "details": "W. H",
        "returns": {
          "_0": "bill data"
        }
      },
      "getApplianceDiscount()": {
        "details": "W. H",
        "returns": {
          "_0": "Appliance discount rate"
        }
      },
      "getCoolingDiscount()": {
        "details": "W. H",
        "returns": {
          "_0": "Cooling discount rate"
        }
      },
      "getDiscountByType(uint256)": {
        "details": "W. H",
        "params": {
          "typeId": "is the bill value"
        }
      },
      "getHeatingDiscount()": {
        "details": "W. H",
        "returns": {
          "_0": "Heating discount rate"
        }
      },
      "getWaterDiscount()": {
        "details": "W. H",
        "returns": {
          "_0": "Water discount rate"
        }
      },
      "owner()": {
        "details": "Returns the address of the current owner."
      },
      "renounceOwnership()": {
        "details": "Leaves the contract without owner. It will not be possible to call `onlyOwner` functions anymore. Can only be called by the current owner. NOTE: Renouncing ownership will leave the contract without an owner, thereby removing any functionality that is only available to the owner."
      },
      "setAccountBalance(uint256)": {
        "details": "W. H",
        "params": {
          "x": "is the bill value "
        }
      },
      "transferOwnership(address)": {
        "details": "Transfers ownership of the contract to a new account (`newOwner`). Can only be called by the current owner."
      }
    },
    "title": "My Home Energy Application",
    "version": 1
  },
  "userdoc": {
    "kind": "user",
    "methods": {},
    "notice": "The contract is to record home energy usage at special rates",
    "version": 1
  }
}