{
  "contractName": "MyHomeEnergy",
  "abi": [
    {
      "inputs": [
        {
          "internalType": "uint256",
          "name": "_num",
          "type": "uint256"
        }
      ],
      "payable": false,
      "stateMutability": "nonpayable",
      "type": "constructor"
    },
    {
      "constant": true,
      "inputs": [],
      "name": "storedData",
      "outputs": [
        {
          "internalType": "uint256",
          "name": "",
          "type": "uint256"
        }
      ],
      "payable": false,
      "stateMutability": "view",
      "type": "function"
    },
    {
      "constant": true,
      "inputs": [],
      "name": "getStoredData",
      "outputs": [
        {
          "internalType": "uint256",
          "name": "",
          "type": "uint256"
        }
      ],
      "payable": false,
      "stateMutability": "view",
      "type": "function"
    },
    {
      "constant": false,
      "inputs": [
        {
          "internalType": "uint256",
          "name": "x",
          "type": "uint256"
        }
      ],
      "name": "setStoredData",
      "outputs": [],
      "payable": false,
      "stateMutability": "nonpayable",
      "type": "function"
    }
  ],
  "bytecode": "0x608060405233600160006101000a81548173ffffffffffffffffffffffffffffffffffffffff021916908373ffffffffffffffffffffffffffffffffffffffff16021790555034801561005157600080fd5b5060405161025d38038061025d8339818101604052602081101561007457600080fd5b810190808051906020019092919050505080600081905550506101c18061009c6000396000f3fe608060405234801561001057600080fd5b50600436106100415760003560e01c80632a1afcd9146100465780632f9530f714610064578063b69ca9a114610092575b600080fd5b61004e6100b0565b6040518082815260200191505060405180910390f35b6100906004803603602081101561007a57600080fd5b81019080803590602001909291905050506100b6565b005b61009a610183565b6040518082815260200191505060405180910390f35b60005481565b600160009054906101000a900473ffffffffffffffffffffffffffffffffffffffff1673ffffffffffffffffffffffffffffffffffffffff163373ffffffffffffffffffffffffffffffffffffffff1614610179576040517f08c379a000000000000000000000000000000000000000000000000000000000815260040180806020018281038252600e8152602001807f4e6f7420746865206f776e65722100000000000000000000000000000000000081525060200191505060405180910390fd5b8060008190555050565b6000805490509056fea265627a7a723158208d58804fee26162e42d7335d99fc55674e0ee912282b6a83551161e56a950d7864736f6c63430005100032",
  "source": "// SPDX-License-Identifier: MIT\npragma solidity >=0.5.16 <0.9.00;\n\n// REQUIREMENTS \n// o Are commented to the specs described here\n//   -> https://docs.soliditylang.org/en/latest/natspec-format.html\n// o Use at least two design patterns from the \"Smart Contracts\" section (SEE A LIST OF DESIGN PATTERNS HERE)\n// o Protect against two attack vectors from the \"Smart Contracts\" section with its SWC number (SEE A LIST OF \n//  ATTACK VECTORS HERE)\n//  -> https://swcregistry.io/ \n// o Inherits from at least one library or interface\n// o Can be easily compiled, migrated and tested (see #5)\n\n/// @title A simulator for trees\n/// @author Larry A. Gardner\n/// @notice You can use this contract for only the most basic simulation\n/// @dev All function calls are currently implemented without side effects\ncontract MyHomeEnergy {\n  uint256 public storedData;\n  address owner = msg.sender;\n\n  constructor (uint256 _num) public {\n    storedData = _num;\n  }\n\n  function getStoredData() public view returns (uint256){\n    return storedData;\n  }\n\n  function setStoredData(uint256 x) public {\n    require(msg.sender == owner, \"Not the owner!\");\n    storedData = x;\n  }\n}\n",
  "sourcePath": "/home/darkblue/blockchain-developer-bootcamp-final-project/contracts/MyHomeEnergy.sol",
  "compiler": {
    "name": "solc",
    "version": "0.5.16+commit.9c3226ce.Emscripten.clang"
  },
  "schemaVersion": "3.4.3",
  "updatedAt": "2021-11-13T09:30:45.491Z",
  "networkType": "ethereum",
  "devdoc": {
    "author": "Larry A. Gardner",
    "details": "All function calls are currently implemented without side effects",
    "methods": {},
    "title": "A simulator for trees"
  },
  "userdoc": {
    "methods": {},
    "notice": "You can use this contract for only the most basic simulation"
  }
}