{
  "contractName": "MyHomeEnergyApp",
  "abi": [
    {
      "inputs": [
        {
          "internalType": "uint256",
          "name": "_num",
          "type": "uint256"
        }
      ],
      "stateMutability": "nonpayable",
      "type": "constructor"
    },
    {
      "anonymous": false,
      "inputs": [
        {
          "indexed": true,
          "internalType": "bytes32",
          "name": "id",
          "type": "bytes32"
        }
      ],
      "name": "ChainlinkCancelled",
      "type": "event"
    },
    {
      "anonymous": false,
      "inputs": [
        {
          "indexed": true,
          "internalType": "bytes32",
          "name": "id",
          "type": "bytes32"
        }
      ],
      "name": "ChainlinkFulfilled",
      "type": "event"
    },
    {
      "anonymous": false,
      "inputs": [
        {
          "indexed": true,
          "internalType": "bytes32",
          "name": "id",
          "type": "bytes32"
        }
      ],
      "name": "ChainlinkRequested",
      "type": "event"
    },
    {
      "anonymous": false,
      "inputs": [
        {
          "indexed": true,
          "internalType": "address",
          "name": "_from",
          "type": "address"
        },
        {
          "indexed": false,
          "internalType": "uint256",
          "name": "_type",
          "type": "uint256"
        },
        {
          "indexed": false,
          "internalType": "uint256",
          "name": "_value",
          "type": "uint256"
        }
      ],
      "name": "LogSetAccountBalance",
      "type": "event"
    },
    {
      "anonymous": false,
      "inputs": [
        {
          "indexed": true,
          "internalType": "address",
          "name": "previousOwner",
          "type": "address"
        },
        {
          "indexed": true,
          "internalType": "address",
          "name": "newOwner",
          "type": "address"
        }
      ],
      "name": "OwnershipTransferred",
      "type": "event"
    },
    {
      "inputs": [],
      "name": "accountbalance",
      "outputs": [
        {
          "internalType": "uint256",
          "name": "",
          "type": "uint256"
        }
      ],
      "stateMutability": "view",
      "type": "function"
    },
    {
      "inputs": [],
      "name": "getAccountBalance",
      "outputs": [
        {
          "internalType": "uint256",
          "name": "",
          "type": "uint256"
        }
      ],
      "stateMutability": "view",
      "type": "function"
    },
    {
      "inputs": [],
      "name": "getApplianceDiscount",
      "outputs": [
        {
          "internalType": "uint256",
          "name": "",
          "type": "uint256"
        }
      ],
      "stateMutability": "pure",
      "type": "function"
    },
    {
      "inputs": [],
      "name": "getCoolingDiscount",
      "outputs": [
        {
          "internalType": "uint256",
          "name": "",
          "type": "uint256"
        }
      ],
      "stateMutability": "pure",
      "type": "function"
    },
    {
      "inputs": [
        {
          "internalType": "uint256",
          "name": "typeId",
          "type": "uint256"
        }
      ],
      "name": "getDiscountByType",
      "outputs": [
        {
          "internalType": "uint256",
          "name": "",
          "type": "uint256"
        }
      ],
      "stateMutability": "view",
      "type": "function"
    },
    {
      "inputs": [],
      "name": "getHeatingDiscount",
      "outputs": [
        {
          "internalType": "uint256",
          "name": "",
          "type": "uint256"
        }
      ],
      "stateMutability": "pure",
      "type": "function"
    },
    {
      "inputs": [],
      "name": "getWaterDiscount",
      "outputs": [
        {
          "internalType": "uint256",
          "name": "",
          "type": "uint256"
        }
      ],
      "stateMutability": "pure",
      "type": "function"
    },
    {
      "inputs": [],
      "name": "owner",
      "outputs": [
        {
          "internalType": "address",
          "name": "",
          "type": "address"
        }
      ],
      "stateMutability": "view",
      "type": "function"
    },
    {
      "inputs": [],
      "name": "renounceOwnership",
      "outputs": [],
      "stateMutability": "nonpayable",
      "type": "function"
    },
    {
      "inputs": [
        {
          "internalType": "uint256",
          "name": "x",
          "type": "uint256"
        }
      ],
      "name": "setAccountBalance",
      "outputs": [],
      "stateMutability": "nonpayable",
      "type": "function"
    },
    {
      "inputs": [
        {
          "internalType": "address",
          "name": "newOwner",
          "type": "address"
        }
      ],
      "name": "transferOwnership",
      "outputs": [],
      "stateMutability": "nonpayable",
      "type": "function"
    },
    {
      "inputs": [],
      "name": "volume",
      "outputs": [
        {
          "internalType": "uint256",
          "name": "",
          "type": "uint256"
        }
      ],
      "stateMutability": "view",
      "type": "function"
    },
    {
      "inputs": [
        {
          "internalType": "uint256",
          "name": "billtype",
          "type": "uint256"
        },
        {
          "internalType": "uint256",
          "name": "billData",
          "type": "uint256"
        }
      ],
      "name": "applyDiscount",
      "outputs": [],
      "stateMutability": "nonpayable",
      "type": "function"
    },
    {
      "inputs": [],
      "name": "requestVolumeData222",
      "outputs": [
        {
          "internalType": "bytes32",
          "name": "requestId",
          "type": "bytes32"
        }
      ],
      "stateMutability": "nonpayable",
      "type": "function"
    },
    {
      "inputs": [
        {
          "internalType": "bytes32",
          "name": "_requestId",
          "type": "bytes32"
        },
        {
          "internalType": "uint256",
          "name": "_volume",
          "type": "uint256"
        }
      ],
      "name": "fulfill222",
      "outputs": [],
      "stateMutability": "nonpayable",
      "type": "function"
    }
  ],
  "bytecode": "0x608060405233600260006101000a81548173ffffffffffffffffffffffffffffffffffffffff021916908373ffffffffffffffffffffffffffffffffffffffff16021790555060016007553480156200005757600080fd5b506040516200263b3803806200263b83398181016040528101906200007d919062000360565b806200009e620000926200014860201b60201c565b6200015060201b60201c565b8060018190555050620000b66200021460201b60201c565b73c57b33452b4f7bb189bb5afae9cc4aba1f7a4fd8600a60006101000a81548173ffffffffffffffffffffffffffffffffffffffff021916908373ffffffffffffffffffffffffffffffffffffffff1602179055507f6435323730643163333131393431643062303862656164323166656137373437600b8190555067016345785d8a0000600c819055505062000409565b600033905090565b60008060009054906101000a900473ffffffffffffffffffffffffffffffffffffffff169050816000806101000a81548173ffffffffffffffffffffffffffffffffffffffff021916908373ffffffffffffffffffffffffffffffffffffffff1602179055508173ffffffffffffffffffffffffffffffffffffffff168173ffffffffffffffffffffffffffffffffffffffff167f8be0079c531659141344cd1fd0a4f28419497f9722a3daafe3b4186f6b6457e060405160405180910390a35050565b620002ba73c89bd4e1632d3a43cb03aaad5262cbe4038bc57173ffffffffffffffffffffffffffffffffffffffff166338cc48316040518163ffffffff1660e01b815260040160206040518083038186803b1580156200027357600080fd5b505afa15801562000288573d6000803e3d6000fd5b505050506040513d601f19601f82011682018060405250810190620002ae91906200032e565b620002bc60201b60201c565b565b80600560006101000a81548173ffffffffffffffffffffffffffffffffffffffff021916908373ffffffffffffffffffffffffffffffffffffffff16021790555050565b6000815190506200031181620003d5565b92915050565b6000815190506200032881620003ef565b92915050565b600060208284031215620003475762000346620003d0565b5b6000620003578482850162000300565b91505092915050565b600060208284031215620003795762000378620003d0565b5b6000620003898482850162000317565b91505092915050565b60006200039f82620003a6565b9050919050565b600073ffffffffffffffffffffffffffffffffffffffff82169050919050565b6000819050919050565b600080fd5b620003e08162000392565b8114620003ec57600080fd5b50565b620003fa81620003c6565b81146200040657600080fd5b50565b61222280620004196000396000f3fe608060405234801561001057600080fd5b50600436106100f55760003560e01c80636c4761d2116100975780638da5cb5b116100665780638da5cb5b1461023c578063c618a1e41461025a578063e57b3fb214610278578063f2fde38b14610296576100f5565b80636c4761d2146101da578063715018a6146101f857806372c273a5146102025780637944b6d214610220576100f5565b80634c59e34d116100d35780634c59e34d1461015257806355a03e931461016e5780636896fabf1461019e5780636973f735146101bc576100f5565b806308aba5aa146100fa5780630f05522e146101165780634a42630414610134575b600080fd5b610114600480360381019061010f9190611694565b6102b2565b005b61011e610338565b60405161012b9190611980565b60405180910390f35b61013c6104bf565b6040516101499190611a5b565b60405180910390f35b61016c60048036038101906101679190611654565b6104c8565b005b61018860048036038101906101839190611694565b6105d9565b6040516101959190611a5b565b60405180910390f35b6101a66106c1565b6040516101b39190611a5b565b60405180910390f35b6101c4610747565b6040516101d19190611a5b565b60405180910390f35b6101e2610750565b6040516101ef9190611a5b565b60405180910390f35b610200610759565b005b61020a6107e1565b6040516102179190611a5b565b60405180910390f35b61023a600480360381019061023591906116c1565b6107e7565b005b610244610973565b60405161025191906118a2565b60405180910390f35b61026261099c565b60405161026f9190611a5b565b60405180910390f35b6102806109a2565b60405161028d9190611a5b565b60405180910390f35b6102b060048036038101906102ab91906115fa565b6109ab565b005b6102ba610aa3565b73ffffffffffffffffffffffffffffffffffffffff166102d8610973565b73ffffffffffffffffffffffffffffffffffffffff161461032e576040517f08c379a0000000000000000000000000000000000000000000000000000000008152600401610325906119fb565b60405180910390fd5b8060018190555050565b60008061034f600b5430634c59e34d60e01b610aab565b90506103b36040518060400160405280600381526020017f67657400000000000000000000000000000000000000000000000000000000008152506040518060800160405280604981526020016121a46049913983610adc9092919063ffffffff16565b6104326040518060400160405280600481526020017f70617468000000000000000000000000000000000000000000000000000000008152506040518060400160405280601881526020017f5241572e4554482e5553442e564f4c554d453234484f5552000000000000000081525083610adc9092919063ffffffff16565b6000670de0b6b3a764000090506104896040518060400160405280600581526020017f74696d65730000000000000000000000000000000000000000000000000000008152508284610b0f9092919063ffffffff16565b6104b8600a60009054906101000a900473ffffffffffffffffffffffffffffffffffffffff1683600c54610b42565b9250505090565b6000600a905090565b816008600082815260200190815260200160002060009054906101000a900473ffffffffffffffffffffffffffffffffffffffff1673ffffffffffffffffffffffffffffffffffffffff163373ffffffffffffffffffffffffffffffffffffffff161461056a576040517f08c379a000000000000000000000000000000000000000000000000000000000815260040161056190611a3b565b60405180910390fd5b6008600082815260200190815260200160002060006101000a81549073ffffffffffffffffffffffffffffffffffffffff0219169055807f7cc135e0cebb02c3480ae5d74d377283180a2601f8f644edf7987b009316c63a60405160405180910390a281600981905550505050565b60006105e3610aa3565b73ffffffffffffffffffffffffffffffffffffffff16610601610973565b73ffffffffffffffffffffffffffffffffffffffff1614610657576040517f08c379a000000000000000000000000000000000000000000000000000000000815260040161064e906119fb565b60405180910390fd5b600182141561066f576106686104bf565b90506106bc565b600282141561068757610680610747565b90506106bc565b600382141561069f57610698610750565b90506106bc565b60048214156106b7576106b06109a2565b90506106bc565b600090505b919050565b60006106cb610aa3565b73ffffffffffffffffffffffffffffffffffffffff166106e9610973565b73ffffffffffffffffffffffffffffffffffffffff161461073f576040517f08c379a0000000000000000000000000000000000000000000000000000000008152600401610736906119fb565b60405180910390fd5b600154905090565b6000600f905090565b60006014905090565b610761610aa3565b73ffffffffffffffffffffffffffffffffffffffff1661077f610973565b73ffffffffffffffffffffffffffffffffffffffff16146107d5576040517f08c379a00000000000000000000000000000000000000000000000000000000081526004016107cc906119fb565b60405180910390fd5b6107df6000610b62565b565b60015481565b6107ef610aa3565b73ffffffffffffffffffffffffffffffffffffffff1661080d610973565b73ffffffffffffffffffffffffffffffffffffffff1614610863576040517f08c379a000000000000000000000000000000000000000000000000000000000815260040161085a906119fb565b60405180910390fd5b60018210158015610875575060048211155b6108b4576040517f08c379a00000000000000000000000000000000000000000000000000000000081526004016108ab9061199b565b60405180910390fd5b6108bd826105d9565b600d81905550600d548111610907576040517f08c379a00000000000000000000000000000000000000000000000000000000081526004016108fe90611a1b565b60405180910390fd5b600d546001546109179190611d81565b6001819055503373ffffffffffffffffffffffffffffffffffffffff167fe942d86438cc21521d3566b08955b8272c0cd4370fa031c47b4430ea648e4dbc83600d54604051610967929190611a76565b60405180910390a25050565b60008060009054906101000a900473ffffffffffffffffffffffffffffffffffffffff16905090565b60095481565b60006019905090565b6109b3610aa3565b73ffffffffffffffffffffffffffffffffffffffff166109d1610973565b73ffffffffffffffffffffffffffffffffffffffff1614610a27576040517f08c379a0000000000000000000000000000000000000000000000000000000008152600401610a1e906119fb565b60405180910390fd5b600073ffffffffffffffffffffffffffffffffffffffff168173ffffffffffffffffffffffffffffffffffffffff161415610a97576040517f08c379a0000000000000000000000000000000000000000000000000000000008152600401610a8e906119bb565b60405180910390fd5b610aa081610b62565b50565b600033905090565b610ab361151f565b610abb61151f565b610ad285858584610c26909392919063ffffffff16565b9150509392505050565b610af3828460800151610cd690919063ffffffff16565b610b0a818460800151610cd690919063ffffffff16565b505050565b610b26828460800151610cd690919063ffffffff16565b610b3d818460800151610cfb90919063ffffffff16565b505050565b6000610b598484846001634042994660e01b610da8565b90509392505050565b60008060009054906101000a900473ffffffffffffffffffffffffffffffffffffffff169050816000806101000a81548173ffffffffffffffffffffffffffffffffffffffff021916908373ffffffffffffffffffffffffffffffffffffffff1602179055508173ffffffffffffffffffffffffffffffffffffffff168173ffffffffffffffffffffffffffffffffffffffff167f8be0079c531659141344cd1fd0a4f28419497f9722a3daafe3b4186f6b6457e060405160405180910390a35050565b610c2e61151f565b610c3e8560800151610100611010565b508385600001818152505082856020019073ffffffffffffffffffffffffffffffffffffffff16908173ffffffffffffffffffffffffffffffffffffffff16815250508185604001907bffffffffffffffffffffffffffffffffffffffffffffffffffffffff191690817bffffffffffffffffffffffffffffffffffffffffffffffffffffffff191681525050849050949350505050565b610ce3826003835161107a565b610cf681836111bf90919063ffffffff16565b505050565b7fffffffffffffffffffffffffffffffffffffffffffffffff0000000000000000811215610d3257610d2d82826111e1565b610da4565b67ffffffffffffffff811315610d5157610d4c8282611258565b610da3565b60008112610d6a57610d658260008361107a565b610da2565b610da1826001837fffffffffffffffffffffffffffffffffffffffffffffffffffffffffffffffff610d9c9190611ced565b61107a565b5b5b5b5050565b600030600754604051602001610dbf929190611876565b604051602081830303815290604052805190602001209050600754856060018181525050856008600083815260200190815260200160002060006101000a81548173ffffffffffffffffffffffffffffffffffffffff021916908373ffffffffffffffffffffffffffffffffffffffff160217905550807fb5e6e01e79f91267dc17b4e6314d5d4d03593d2ceee0fbb452b750bd70ea5af960405160405180910390a2600082600080886000015189602001518a604001518b606001518a8d6080015160000151604051602401610e9d9897969594939291906118bd565b604051602081830303815290604052907bffffffffffffffffffffffffffffffffffffffffffffffffffffffff19166020820180517bffffffffffffffffffffffffffffffffffffffffffffffffffffffff83818316178352505050509050600560009054906101000a900473ffffffffffffffffffffffffffffffffffffffff1673ffffffffffffffffffffffffffffffffffffffff16634000aea08887846040518463ffffffff1660e01b8152600401610f5b93929190611942565b602060405180830381600087803b158015610f7557600080fd5b505af1158015610f89573d6000803e3d6000fd5b505050506040513d601f19601f82011682018060405250810190610fad9190611627565b610fec576040517f08c379a0000000000000000000000000000000000000000000000000000000008152600401610fe3906119db565b60405180910390fd5b600160076000828254610fff9190611acc565b925050819055505095945050505050565b61101861158c565b60006020836110279190611ed4565b14611053576020826110399190611ed4565b60206110459190611d81565b826110509190611acc565b91505b81836020018181525050604051808452600081528281016020016040525082905092915050565b601781116110a7576110a18160058460ff16901b60ff1617846112a490919063ffffffff16565b506111ba565b60ff81116110e9576110cc601860058460ff16901b17846112a490919063ffffffff16565b506110e3816001856112c49092919063ffffffff16565b506111b9565b61ffff811161112c5761110f601960058460ff16901b17846112a490919063ffffffff16565b50611126816002856112c49092919063ffffffff16565b506111b8565b63ffffffff811161117157611154601a60058460ff16901b17846112a490919063ffffffff16565b5061116b816004856112c49092919063ffffffff16565b506111b7565b67ffffffffffffffff81116111b65761119d601b60058460ff16901b17846112a490919063ffffffff16565b506111b4816008856112c49092919063ffffffff16565b505b5b5b5b5b505050565b6111c761158c565b6111d9838460000151518485516112e6565b905092915050565b6111ff60036005600660ff16901b17836112a490919063ffffffff16565b5061125482827fffffffffffffffffffffffffffffffffffffffffffffffffffffffffffffffff6112309190611ced565b6040516020016112409190611a5b565b6040516020818303038152906040526113d5565b5050565b61127660026005600660ff16901b17836112a490919063ffffffff16565b506112a0828260405160200161128c9190611a5b565b6040516020818303038152906040526113d5565b5050565b6112ac61158c565b6112bc83846000015151846113fa565b905092915050565b6112cc61158c565b6112dd848560000151518585611451565b90509392505050565b6112ee61158c565b82518211156112fc57600080fd5b8460200151828561130d9190611acc565b1115611342576113418560026113328860200151888761132d9190611acc565b6114df565b61133c9190611c93565b6114fb565b5b6000808651805187602083010193508088870111156113615787860182525b60208701925050505b602084106113a857805182526020826113839190611acc565b91506020816113929190611acc565b90506020846113a19190611d81565b935061136a565b60006001856020036101000a03905080198251168184511681811785525050508692505050949350505050565b6113e2826002835161107a565b6113f581836111bf90919063ffffffff16565b505050565b61140261158c565b836020015183106114285761142784600286602001516114229190611c93565b6114fb565b5b8351805160208583010184815381861415611444576001820183525b5050508390509392505050565b61145961158c565b8460200151848361146a9190611acc565b11156114925761149185600286856114829190611acc565b61148c9190611c93565b6114fb565b5b60006001836101006114a49190611b75565b6114ae9190611d81565b905085518386820101858319825116178152815185880111156114d15784870182525b505085915050949350505050565b6000818311156114f1578290506114f5565b8190505b92915050565b60008260000151905061150e8383611010565b5061151983826111bf565b50505050565b6040518060a0016040528060008019168152602001600073ffffffffffffffffffffffffffffffffffffffff16815260200160007bffffffffffffffffffffffffffffffffffffffffffffffffffffffff191681526020016000815260200161158661158c565b81525090565b604051806040016040528060608152602001600081525090565b6000813590506115b581612147565b92915050565b6000815190506115ca8161215e565b92915050565b6000813590506115df81612175565b92915050565b6000813590506115f48161218c565b92915050565b6000602082840312156116105761160f611f63565b5b600061161e848285016115a6565b91505092915050565b60006020828403121561163d5761163c611f63565b5b600061164b848285016115bb565b91505092915050565b6000806040838503121561166b5761166a611f63565b5b6000611679858286016115d0565b925050602061168a858286016115e5565b9150509250929050565b6000602082840312156116aa576116a9611f63565b5b60006116b8848285016115e5565b91505092915050565b600080604083850312156116d8576116d7611f63565b5b60006116e6858286016115e5565b92505060206116f7858286016115e5565b9150509250929050565b61170a81611db5565b82525050565b61171981611dd3565b82525050565b61172881611ddd565b82525050565b600061173982611a9f565b6117438185611aaa565b9350611753818560208601611e73565b61175c81611f68565b840191505092915050565b61177861177382611e3d565b611ea6565b82525050565b600061178b602283611abb565b915061179682611f93565b604082019050919050565b60006117ae602683611abb565b91506117b982611fe2565b604082019050919050565b60006117d1602383611abb565b91506117dc82612031565b604082019050919050565b60006117f4602083611abb565b91506117ff82612080565b602082019050919050565b6000611817602583611abb565b9150611822826120a9565b604082019050919050565b600061183a602883611abb565b9150611845826120f8565b604082019050919050565b61185981611e33565b82525050565b61187061186b82611e33565b611eca565b82525050565b60006118828285611767565b601482019150611892828461185f565b6020820191508190509392505050565b60006020820190506118b76000830184611701565b92915050565b6000610100820190506118d3600083018b611701565b6118e0602083018a611850565b6118ed6040830189611710565b6118fa6060830188611701565b611907608083018761171f565b61191460a0830186611850565b61192160c0830185611850565b81810360e0830152611933818461172e565b90509998505050505050505050565b60006060820190506119576000830186611701565b6119646020830185611850565b8181036040830152611976818461172e565b9050949350505050565b60006020820190506119956000830184611710565b92915050565b600060208201905081810360008301526119b48161177e565b9050919050565b600060208201905081810360008301526119d4816117a1565b9050919050565b600060208201905081810360008301526119f4816117c4565b9050919050565b60006020820190508181036000830152611a14816117e7565b9050919050565b60006020820190508181036000830152611a348161180a565b9050919050565b60006020820190508181036000830152611a548161182d565b9050919050565b6000602082019050611a706000830184611850565b92915050565b6000604082019050611a8b6000830185611850565b611a986020830184611850565b9392505050565b600081519050919050565b600082825260208201905092915050565b600082825260208201905092915050565b6000611ad782611e33565b9150611ae283611e33565b9250827fffffffffffffffffffffffffffffffffffffffffffffffffffffffffffffffff03821115611b1757611b16611f05565b5b828201905092915050565b6000808291508390505b6001851115611b6c57808604811115611b4857611b47611f05565b5b6001851615611b575780820291505b8081029050611b6585611f86565b9450611b2c565b94509492505050565b6000611b8082611e33565b9150611b8b83611e33565b9250611bb87fffffffffffffffffffffffffffffffffffffffffffffffffffffffffffffffff8484611bc0565b905092915050565b600082611bd05760019050611c8c565b81611bde5760009050611c8c565b8160018114611bf45760028114611bfe57611c2d565b6001915050611c8c565b60ff841115611c1057611c0f611f05565b5b8360020a915084821115611c2757611c26611f05565b5b50611c8c565b5060208310610133831016604e8410600b8410161715611c625782820a905083811115611c5d57611c5c611f05565b5b611c8c565b611c6f8484846001611b22565b92509050818404811115611c8657611c85611f05565b5b81810290505b9392505050565b6000611c9e82611e33565b9150611ca983611e33565b9250817fffffffffffffffffffffffffffffffffffffffffffffffffffffffffffffffff0483118215151615611ce257611ce1611f05565b5b828202905092915050565b6000611cf882611e09565b9150611d0383611e09565b9250827f800000000000000000000000000000000000000000000000000000000000000001821260008412151615611d3e57611d3d611f05565b5b827f7fffffffffffffffffffffffffffffffffffffffffffffffffffffffffffffff018213600084121615611d7657611d75611f05565b5b828203905092915050565b6000611d8c82611e33565b9150611d9783611e33565b925082821015611daa57611da9611f05565b5b828203905092915050565b6000611dc082611e13565b9050919050565b60008115159050919050565b6000819050919050565b60007fffffffff0000000000000000000000000000000000000000000000000000000082169050919050565b6000819050919050565b600073ffffffffffffffffffffffffffffffffffffffff82169050919050565b6000819050919050565b6000611e4882611e4f565b9050919050565b6000611e5a82611e61565b9050919050565b6000611e6c82611e13565b9050919050565b60005b83811015611e91578082015181840152602081019050611e76565b83811115611ea0576000848401525b50505050565b6000611eb182611eb8565b9050919050565b6000611ec382611f79565b9050919050565b6000819050919050565b6000611edf82611e33565b9150611eea83611e33565b925082611efa57611ef9611f34565b5b828206905092915050565b7f4e487b7100000000000000000000000000000000000000000000000000000000600052601160045260246000fd5b7f4e487b7100000000000000000000000000000000000000000000000000000000600052601260045260246000fd5b600080fd5b6000601f19601f8301169050919050565b60008160601b9050919050565b60008160011c9050919050565b7f42696c6c2076616c7565206d757374206265206265747765656e203120616e6460008201527f2034000000000000000000000000000000000000000000000000000000000000602082015250565b7f4f776e61626c653a206e6577206f776e657220697320746865207a65726f206160008201527f6464726573730000000000000000000000000000000000000000000000000000602082015250565b7f756e61626c6520746f207472616e73666572416e6443616c6c20746f206f726160008201527f636c650000000000000000000000000000000000000000000000000000000000602082015250565b7f4f776e61626c653a2063616c6c6572206973206e6f7420746865206f776e6572600082015250565b7f446973636f756e74206d757374206265206c657373207468616e2062696c6c2060008201527f76616c7565000000000000000000000000000000000000000000000000000000602082015250565b7f536f75726365206d75737420626520746865206f7261636c65206f662074686560008201527f2072657175657374000000000000000000000000000000000000000000000000602082015250565b61215081611db5565b811461215b57600080fd5b50565b61216781611dc7565b811461217257600080fd5b50565b61217e81611dd3565b811461218957600080fd5b50565b61219581611e33565b81146121a057600080fd5b5056fe68747470733a2f2f6d696e2d6170692e63727970746f636f6d706172652e636f6d2f646174612f70726963656d756c746966756c6c3f6673796d733d455448267473796d733d555344a2646970667358221220ffd7a70198cb0301d14824779fce977bc7a694a106a2e1bddfd5ffd26d8b3c7764736f6c63430008070033",
  "immutableReferences": {},
  "source": "// SPDX-License-Identifier: MIT\npragma solidity ^0.8.7;\n\n// REQUIREMENTS \n// (2) Use at least two design patterns from the \"Smart Contracts\" section (SEE A LIST OF DESIGN PATTERNS HERE)\n// (3) Protect against two attack vectors from the \"Smart Contracts\" section with its SWC number (SEE A LIST OF \n//  ATTACK VECTORS HERE)\n//  -> https://swcregistry.io/ \n\nimport \"@openzeppelin/contracts/access/Ownable.sol\";\nimport \"@chainlink/contracts/src/v0.8/ChainlinkClient.sol\";\n\n/// @title My Home Energy Base\n/// @author W. HE\n/// @notice ....\n/// @dev ....\ninterface EnergyProgramDiscountRate{\n     function getCoolingDiscount() view external returns (uint);\n     function getHeatingDiscount()  view external returns (uint);\n     function getWaterDiscount()  view external returns (uint);\n     function getApplianceDiscount() view external returns (uint);\n  }\n\n/// @title My Home Energy Base\n/// @author W. HE\n/// @notice The contract is to pay home energy usage\n/// @dev All function calls are currently implemented without side effects\nabstract contract MyHomeEnergy is Ownable, EnergyProgramDiscountRate{\n\n  uint256 public accountbalance;\n  address ownerAddr = msg.sender;\n\n  /// @notice \n  /// @dev W. H\n  /// @param _from is the from address of transaction. _value is the value of the transaction \n  event LogSetAccountBalance (address indexed _from, uint256 _type, uint256 _value);\n\n  /// @notice \n  /// @dev W. H\n  /// @param _num is the value to be set\n  constructor (uint256 _num){ \n    accountbalance = _num;\n  }\n\n  /// @notice \n  /// @dev W. H\n  /// @return bill data\n  function getAccountBalance() public view onlyOwner returns (uint256){\n    return accountbalance;\n  }\n\n  /// @notice \n  /// @dev W. H\n  /// @param  x is the bill value \n  function setAccountBalance(uint256 x) public onlyOwner{\n    accountbalance = x;\n  }\n\n  /// @notice \n  /// @dev W. H\n  /// @param  typeId is the bill value\n  function getDiscountByType(uint256 typeId) view public onlyOwner returns (uint){\n      // Cooling\n      if (typeId == 1)\n      {\n        return getCoolingDiscount();\n      }\n      // Heating\n      if (typeId == 2)\n      {\n        return getHeatingDiscount();\n      }\n      // Water\n      if (typeId == 3)\n      {\n        return getWaterDiscount();\n      }\n      // Appliance\n      if (typeId == 4)\n      {\n        return getApplianceDiscount();\n      }\n      return 0;\n  }\n\n  /// @notice \n  /// @dev W. H\n  /// @return Cooling discount rate\n function getCoolingDiscount() override public pure returns (uint){\n    return 10;\n }\n\n  /// @notice \n  /// @dev W. H\n  /// @return Heating discount rate\n  function getHeatingDiscount() override public pure returns (uint){\n    return 15;\n  }\n  \n  /// @notice \n  /// @dev W. H\n  /// @return Water discount rate\n  function getWaterDiscount() override public pure returns (uint){\n    return 20;\n  }\n  \n  /// @notice \n  /// @dev W. H\n  /// @return Appliance discount rate\n  function getApplianceDiscount() override public pure returns (uint){\n    return 25;\n  }\n}\n\n/// @title My Home Energy Application\n/// @author W. HE\n/// @notice The contract is to record home energy usage at special rates\n/// @dev All function calls are currently implemented without side effects\ncontract MyHomeEnergyApp is MyHomeEnergy, ChainlinkClient {\n  using Chainlink for Chainlink.Request;\n\n // Oracle\n  uint256 public volume;\n  address private oracle;\n  bytes32 private jobId;\n  uint256 private fee;\n\n  uint256 discountValue;\n\n    /// @notice \n    /// @dev W. H\n    /// @param _num is the value to be set\n  constructor(uint256 _num) MyHomeEnergy(_num){\n    // Oracle to get energy price\n    setPublicChainlinkToken();\n    oracle = 0xc57B33452b4F7BB189bB5AfaE9cc4aBa1f7a4FD8;\n    jobId = \"d5270d1c311941d0b08bead21fea7747\";\n    fee = 0.1 * 10 ** 18; // (Varies by network and job)\n  }\n\n    /// @notice \n    /// @dev W. H\n    /// @param billtype is type of the bill, between 1 and 4. billData is the bill amount \n  function applyDiscount (uint256 billtype, uint256 billData) onlyOwner public{\n       require(billtype >= 1 && billtype <= 4, \"Bill value must be between 1 and 4\");\n       // Get the rate, based on bill type\n       discountValue = getDiscountByType(billtype);\n       require(billData > discountValue, \"Discount must be less than bill value\");\n       accountbalance = accountbalance  - discountValue;\n       //setBillData();\n       emit LogSetAccountBalance(msg.sender, billtype, discountValue);\n  }\n\n  /// @notice \n  /// @dev W. H\n  /// @return requestId\n  function requestVolumeData222() public returns (bytes32 requestId) {\n        Chainlink.Request memory request = buildChainlinkRequest(jobId, address(this), this.fulfill222.selector);\n        \n        // Set the URL to perform the GET request on\n        request.add(\"get\", \"https://min-api.cryptocompare.com/data/pricemultifull?fsyms=ETH&tsyms=USD\");\n        \n        // Set the path to find the desired data in the API response, where the response format is:\n        // {\"RAW\":\n        //   {\"ETH\":\n        //    {\"USD\":\n        //     {\n        //      \"VOLUME24HOUR\": xxx.xxx,\n        //     }\n        //    }\n        //   }\n        //  }\n        request.add(\"path\", \"RAW.ETH.USD.VOLUME24HOUR\");\n        \n        // Multiply the result by 1000000000000000000 to remove decimals\n        int timesAmount = 10**18;\n        request.addInt(\"times\", timesAmount);\n        \n        // Sends the request\n        return sendChainlinkRequestTo(oracle, request, fee);\n    }\n\n  /// @notice \n  /// @dev W. H\n  /// @param  _requestId is the request, _volume is the _volume\n    function fulfill222(bytes32 _requestId, uint256 _volume) public recordChainlinkFulfillment(_requestId) {\n        volume = _volume;\n    }\n}\n\n",
  "sourcePath": "/home/darkblue/blockchain-developer-bootcamp-final-project/contracts/MyHomeEnergy.sol",
  "compiler": {
    "name": "solc",
    "version": "0.8.7+commit.e28d00a7.Emscripten.clang"
  },
  "schemaVersion": "3.4.3",
  "updatedAt": "2021-11-18T12:25:03.332Z",
  "devdoc": {
    "author": "W. HE",
    "details": "All function calls are currently implemented without side effects",
    "kind": "dev",
    "methods": {
      "applyDiscount(uint256,uint256)": {
        "details": "W. H",
        "params": {
          "billtype": "is type of the bill, between 1 and 4. billData is the bill amount "
        }
      },
      "constructor": {
        "details": "W. H",
        "params": {
          "_num": "is the value to be set"
        }
      },
      "fulfill222(bytes32,uint256)": {
        "details": "W. H",
        "params": {
          "_requestId": "is the request, _volume is the _volume"
        }
      },
      "getAccountBalance()": {
        "details": "W. H",
        "returns": {
          "_0": "bill data"
        }
      },
      "getApplianceDiscount()": {
        "details": "W. H",
        "returns": {
          "_0": "Appliance discount rate"
        }
      },
      "getCoolingDiscount()": {
        "details": "W. H",
        "returns": {
          "_0": "Cooling discount rate"
        }
      },
      "getDiscountByType(uint256)": {
        "details": "W. H",
        "params": {
          "typeId": "is the bill value"
        }
      },
      "getHeatingDiscount()": {
        "details": "W. H",
        "returns": {
          "_0": "Heating discount rate"
        }
      },
      "getWaterDiscount()": {
        "details": "W. H",
        "returns": {
          "_0": "Water discount rate"
        }
      },
      "owner()": {
        "details": "Returns the address of the current owner."
      },
      "renounceOwnership()": {
        "details": "Leaves the contract without owner. It will not be possible to call `onlyOwner` functions anymore. Can only be called by the current owner. NOTE: Renouncing ownership will leave the contract without an owner, thereby removing any functionality that is only available to the owner."
      },
      "requestVolumeData222()": {
        "details": "W. H",
        "returns": {
          "requestId": "requestId"
        }
      },
      "setAccountBalance(uint256)": {
        "details": "W. H",
        "params": {
          "x": "is the bill value "
        }
      },
      "transferOwnership(address)": {
        "details": "Transfers ownership of the contract to a new account (`newOwner`). Can only be called by the current owner."
      }
    },
    "title": "My Home Energy Application",
    "version": 1
  },
  "userdoc": {
    "kind": "user",
    "methods": {},
    "notice": "The contract is to record home energy usage at special rates",
    "version": 1
  }
}